{
  "contractName": "AttendanceV3",
  "abi": [
    {
      "inputs": [],
      "payable": false,
      "stateMutability": "nonpayable",
      "type": "constructor"
    },
    {
      "constant": true,
      "inputs": [],
      "name": "owner",
      "outputs": [
        {
          "internalType": "address",
          "name": "",
          "type": "address"
        }
      ],
      "payable": false,
      "stateMutability": "view",
      "type": "function"
    },
    {
      "constant": false,
      "inputs": [
        {
          "internalType": "string",
          "name": "_a",
          "type": "string"
        },
        {
          "internalType": "string",
          "name": "_b",
          "type": "string"
        }
      ],
      "name": "equal",
      "outputs": [
        {
          "internalType": "bool",
          "name": "",
          "type": "bool"
        }
      ],
      "payable": false,
      "stateMutability": "nonpayable",
      "type": "function"
    },
    {
      "constant": false,
      "inputs": [
        {
          "internalType": "string",
          "name": "_a",
          "type": "string"
        },
        {
          "internalType": "string",
          "name": "_b",
          "type": "string"
        }
      ],
      "name": "compare",
      "outputs": [
        {
          "internalType": "int256",
          "name": "",
          "type": "int256"
        }
      ],
      "payable": false,
      "stateMutability": "nonpayable",
      "type": "function"
    },
    {
      "constant": false,
      "inputs": [
        {
          "internalType": "string",
          "name": "_username",
          "type": "string"
        },
        {
          "internalType": "string",
          "name": "_password",
          "type": "string"
        },
        {
          "internalType": "address",
          "name": "_acccountAddress",
          "type": "address"
        }
      ],
      "name": "registerEmployee",
      "outputs": [],
      "payable": false,
      "stateMutability": "nonpayable",
      "type": "function"
    },
    {
      "constant": false,
      "inputs": [
        {
          "internalType": "string",
          "name": "_username",
          "type": "string"
        },
        {
          "internalType": "string",
          "name": "_password",
          "type": "string"
        }
      ],
      "name": "verifyUser",
      "outputs": [
        {
          "components": [
            {
              "internalType": "address",
              "name": "acccountAddress",
              "type": "address"
            },
            {
              "internalType": "bool",
              "name": "isVerified",
              "type": "bool"
            }
          ],
          "internalType": "struct AttendanceV3.caseVerifiedStruct",
          "name": "",
          "type": "tuple"
        }
      ],
      "payable": false,
      "stateMutability": "nonpayable",
      "type": "function"
    },
    {
      "constant": true,
      "inputs": [],
      "name": "getRegisteredUserName",
      "outputs": [
        {
          "internalType": "string[]",
          "name": "",
          "type": "string[]"
        }
      ],
      "payable": false,
      "stateMutability": "view",
      "type": "function"
    },
    {
      "constant": true,
      "inputs": [],
      "name": "getRegisteredAddresses",
      "outputs": [
        {
          "internalType": "address[]",
          "name": "",
          "type": "address[]"
        }
      ],
      "payable": false,
      "stateMutability": "view",
      "type": "function"
    }
  ],
  "bytecode": "0x608060405234801561001057600080fd5b5033600360006101000a81548173ffffffffffffffffffffffffffffffffffffffff021916908373ffffffffffffffffffffffffffffffffffffffff16021790555060096004819055506011600581905550611181806100716000396000f3fe608060405234801561001057600080fd5b506004361061007d5760003560e01c806346bdca9a1161005b57806346bdca9a146101005780638da5cb5b14610130578063b4291c951461014e578063fb70d5881461016c5761007d565b8063227ef061146100825780633a96fdd7146100a05780633f360b41146100d0575b600080fd5b61008a610188565b6040516100979190610e91565b60405180910390f35b6100ba60048036036100b59190810190610b11565b610216565b6040516100c79190610ef0565b60405180910390f35b6100ea60048036036100e59190810190610b11565b6103d4565b6040516100f79190610f42565b60405180910390f35b61011a60048036036101159190810190610b11565b61061f565b6040516101279190610ed5565b60405180910390f35b610138610635565b6040516101459190610e76565b60405180910390f35b61015661065b565b6040516101639190610eb3565b60405180910390f35b61018660048036036101819190810190610b7d565b610744565b005b6060600280548060200260200160405190810160405280929190818152602001828054801561020c57602002820191906000526020600020905b8160009054906101000a900473ffffffffffffffffffffffffffffffffffffffff1673ffffffffffffffffffffffffffffffffffffffff16815260200190600101908083116101c2575b5050505050905090565b600060608390506060839050600082519050808251101561023657815190505b60008090505b8181101561037a5782818151811061025057fe5b602001015160f81c60f81b7effffffffffffffffffffffffffffffffffffffffffffffffffffffffffffff191684828151811061028957fe5b602001015160f81c60f81b7effffffffffffffffffffffffffffffffffffffffffffffffffffffffffffff191610156102e8577fffffffffffffffffffffffffffffffffffffffffffffffffffffffffffffffff9450505050506103ce565b8281815181106102f457fe5b602001015160f81c60f81b7effffffffffffffffffffffffffffffffffffffffffffffffffffffffffffff191684828151811061032d57fe5b602001015160f81c60f81b7effffffffffffffffffffffffffffffffffffffffffffffffffffffffffffff1916111561036d5760019450505050506103ce565b808060010191505061023c565b508151835110156103b0577fffffffffffffffffffffffffffffffffffffffffffffffffffffffffffffffff93505050506103ce565b8151835111156103c657600193505050506103ce565b600093505050505b92915050565b6103dc6108dc565b60008090505b6000805490508110156105db573073ffffffffffffffffffffffffffffffffffffffff166346bdca9a6000838154811061041857fe5b9060005260206000209060030201600001866040518363ffffffff1660e01b8152600401610447929190610f0b565b602060405180830381600087803b15801561046157600080fd5b505af1158015610475573d6000803e3d6000fd5b505050506040513d601f19601f820116820180604052506104999190810190610ae8565b156105ce573073ffffffffffffffffffffffffffffffffffffffff166346bdca9a600083815481106104c757fe5b9060005260206000209060030201600101856040518363ffffffff1660e01b81526004016104f6929190610f0b565b602060405180830381600087803b15801561051057600080fd5b505af1158015610524573d6000803e3d6000fd5b505050506040513d601f19601f820116820180604052506105489190810190610ae8565b156105cd576105556108dc565b60405180604001604052806000848154811061056d57fe5b906000526020600020906003020160020160009054906101000a900473ffffffffffffffffffffffffffffffffffffffff1673ffffffffffffffffffffffffffffffffffffffff1681526020016001151581525090508092505050610619565b5b80806001019150506103e2565b506105e46108dc565b60405180604001604052803373ffffffffffffffffffffffffffffffffffffffff168152602001600015158152509050809150505b92915050565b60008061062c8484610216565b14905092915050565b600360009054906101000a900473ffffffffffffffffffffffffffffffffffffffff1681565b60606001805480602002602001604051908101604052809291908181526020016000905b8282101561073b578382906000526020600020018054600181600116156101000203166002900480601f0160208091040260200160405190810160405280929190818152602001828054600181600116156101000203166002900480156107275780601f106106fc57610100808354040283529160200191610727565b820191906000526020600020905b81548152906001019060200180831161070a57829003601f168201915b50505050508152602001906001019061067f565b50505050905090565b61074c61090e565b60405180606001604052808581526020018481526020018373ffffffffffffffffffffffffffffffffffffffff1681525090506000819080600181540180825580915050906001820390600052602060002090600302016000909192909190915060008201518160000190805190602001906107c9929190610945565b5060208201518160010190805190602001906107e6929190610945565b5060408201518160020160006101000a81548173ffffffffffffffffffffffffffffffffffffffff021916908373ffffffffffffffffffffffffffffffffffffffff160217905550505050600184908060018154018082558091505090600182039060005260206000200160009091929091909150908051906020019061086e9291906109c5565b505060028290806001815401808255809150509060018203906000526020600020016000909192909190916101000a81548173ffffffffffffffffffffffffffffffffffffffff021916908373ffffffffffffffffffffffffffffffffffffffff1602179055505050505050565b6040518060400160405280600073ffffffffffffffffffffffffffffffffffffffff1681526020016000151581525090565b60405180606001604052806060815260200160608152602001600073ffffffffffffffffffffffffffffffffffffffff1681525090565b828054600181600116156101000203166002900490600052602060002090601f016020900481019282601f1061098657805160ff19168380011785556109b4565b828001600101855582156109b4579182015b828111156109b3578251825591602001919060010190610998565b5b5090506109c19190610a45565b5090565b828054600181600116156101000203166002900490600052602060002090601f016020900481019282601f10610a0657805160ff1916838001178555610a34565b82800160010185558215610a34579182015b82811115610a33578251825591602001919060010190610a18565b5b509050610a419190610a45565b5090565b610a6791905b80821115610a63576000816000905550600101610a4b565b5090565b90565b600081359050610a7981611110565b92915050565b600081519050610a8e81611127565b92915050565b600082601f830112610aa557600080fd5b8135610ab8610ab382610f8a565b610f5d565b91508082526020830160208301858383011115610ad457600080fd5b610adf8382846110bd565b50505092915050565b600060208284031215610afa57600080fd5b6000610b0884828501610a7f565b91505092915050565b60008060408385031215610b2457600080fd5b600083013567ffffffffffffffff811115610b3e57600080fd5b610b4a85828601610a94565b925050602083013567ffffffffffffffff811115610b6757600080fd5b610b7385828601610a94565b9150509250929050565b600080600060608486031215610b9257600080fd5b600084013567ffffffffffffffff811115610bac57600080fd5b610bb886828701610a94565b935050602084013567ffffffffffffffff811115610bd557600080fd5b610be186828701610a94565b9250506040610bf286828701610a6a565b9150509250925092565b6000610c088383610c28565b60208301905092915050565b6000610c208383610d7f565b905092915050565b610c3181611075565b82525050565b610c4081611075565b82525050565b6000610c5182610feb565b610c5b8185611031565b9350610c6683610fb6565b8060005b83811015610c97578151610c7e8882610bfc565b9750610c8983611017565b925050600181019050610c6a565b5085935050505092915050565b6000610caf82610ff6565b610cb98185611042565b935083602082028501610ccb85610fc6565b8060005b85811015610d075784840389528151610ce88582610c14565b9450610cf383611024565b925060208a01995050600181019050610ccf565b50829750879550505050505092915050565b610d2281611087565b82525050565b610d3181611087565b82525050565b610d4081611093565b82525050565b6000610d518261100c565b610d5b8185611064565b9350610d6b8185602086016110cc565b610d74816110ff565b840191505092915050565b6000610d8a82611001565b610d948185611053565b9350610da48185602086016110cc565b610dad816110ff565b840191505092915050565b600081546001811660008114610dd55760018114610dfb57610e3f565b607f6002830416610de68187611064565b955060ff198316865260208601935050610e3f565b60028204610e098187611064565b9550610e1485610fd6565b60005b82811015610e3657815481890152600182019150602081019050610e17565b80880195505050505b505092915050565b604082016000820151610e5d6000850182610c28565b506020820151610e706020850182610d19565b50505050565b6000602082019050610e8b6000830184610c37565b92915050565b60006020820190508181036000830152610eab8184610c46565b905092915050565b60006020820190508181036000830152610ecd8184610ca4565b905092915050565b6000602082019050610eea6000830184610d28565b92915050565b6000602082019050610f056000830184610d37565b92915050565b60006040820190508181036000830152610f258185610db8565b90508181036020830152610f398184610d46565b90509392505050565b6000604082019050610f576000830184610e47565b92915050565b6000604051905081810181811067ffffffffffffffff82111715610f8057600080fd5b8060405250919050565b600067ffffffffffffffff821115610fa157600080fd5b601f19601f8301169050602081019050919050565b6000819050602082019050919050565b6000819050602082019050919050565b60008190508160005260206000209050919050565b600081519050919050565b600081519050919050565b600081519050919050565b600081519050919050565b6000602082019050919050565b6000602082019050919050565b600082825260208201905092915050565b600082825260208201905092915050565b600082825260208201905092915050565b600082825260208201905092915050565b60006110808261109d565b9050919050565b60008115159050919050565b6000819050919050565b600073ffffffffffffffffffffffffffffffffffffffff82169050919050565b82818337600083830152505050565b60005b838110156110ea5780820151818401526020810190506110cf565b838111156110f9576000848401525b50505050565b6000601f19601f8301169050919050565b61111981611075565b811461112457600080fd5b50565b61113081611087565b811461113b57600080fd5b5056fea365627a7a72315820efa3d3821941aa51f5e1344024dd29f80db8de43fe11bebe6c3ec3d3fbc053976c6578706572696d656e74616cf564736f6c63430005100040",
  "source": "pragma solidity >=0.4.25 <0.7.0;\r\npragma experimental ABIEncoderV2;\r\n\r\n\r\n\r\ncontract AttendanceV3 {\r\n    \r\n    // This Employee model will be used for login and register \r\n    struct Employee{\r\n        string username;\r\n        string password;\r\n        address acccountAddress;\r\n     \r\n    }\r\n    \r\n    struct enteryAttendance{\r\n        address acccountAddress;\r\n        string timeEntered;\r\n    }\r\n    \r\n    struct exitAttendance{\r\n        address acccountAddress;\r\n        string timeExit;\r\n    }\r\n    \r\n    struct caseVerifiedStruct{  // this is for retuning if username and password is correct\r\n        address acccountAddress;\r\n        bool isVerified;\r\n    }\r\n    \r\n    Employee [] private allEmployees; // there will be all employees\r\n    string [] arrayUsername;\r\n    address []  arrayAddresses;\r\n            \r\n    address public owner; // owner address save ho ga is me \r\n    \r\n    \r\n    // mapping(string => enteryAttendance[] ) public mappingEnteryAttendance; //  date -> (map)_->  enteryAttendanceArray\r\n    // mapping(string => exitAttendance[] ) public mappingExitAttendance; //  date -> (map)_->  exitAttendance\r\n    \r\n    uint jobStartTimeHr; // job start time \r\n    uint jobEndTimeHr;  // job end time \r\n   \r\n    \r\n    constructor() public\r\n    {\r\n        owner=msg.sender;\r\n        \r\n        jobStartTimeHr=9; // 9 am \r\n        jobEndTimeHr=17; // 5 pm\r\n      \r\n    }\r\n\r\n    function equal(string memory _a, string memory _b) public returns (bool) {\r\n        return compare(_a, _b) == 0;\r\n    }\r\n    \r\n        function compare(string memory _a, string memory _b) public returns (int) {\r\n        \r\n        bytes memory a = bytes(_a);\r\n        bytes memory b = bytes(_b);\r\n        uint minLength = a.length;\r\n        if (b.length < minLength) minLength = b.length;\r\n        //@todo unroll the loop into increments of 32 and do full 32 byte comparisons\r\n        for (uint i = 0; i < minLength; i ++)\r\n            if (a[i] < b[i])\r\n                return -1;\r\n            else if (a[i] > b[i])\r\n                return 1;\r\n        if (a.length < b.length)\r\n            return -1;\r\n        else if (a.length > b.length)\r\n            return 1;\r\n        else\r\n            return 0;\r\n    }\r\n    \r\n    function registerEmployee (string memory _username, string memory _password, address _acccountAddress) public {\r\n        \r\n        Employee memory tempEmp=Employee({username:_username, password:_password ,  acccountAddress:_acccountAddress});\r\n        allEmployees.push(tempEmp);\r\n        arrayUsername.push(_username);\r\n        arrayAddresses.push(_acccountAddress);\r\n        \r\n    }\r\n    \r\n    function verifyUser(string memory _username, string memory _password) public returns (caseVerifiedStruct memory) {\r\n        \r\n        for(uint i=0 ;i<allEmployees.length; i++){\r\n            \r\n            if(this.equal(allEmployees[i].username, _username))\r\n            {\r\n                if( this.equal(allEmployees[i].password, _password))\r\n                {\r\n                    caseVerifiedStruct memory temp= caseVerifiedStruct({acccountAddress:allEmployees[i].acccountAddress , isVerified:true});\r\n                    return temp;\r\n                }\r\n            }\r\n        }\r\n        \r\n        caseVerifiedStruct memory temp2= caseVerifiedStruct({acccountAddress: msg.sender , isVerified:false});  // will return own address and check will be false \r\n        return temp2;\r\n        \r\n    }\r\n    \r\n    function getRegisteredUserName() public view returns  ( string [] memory){\r\n        \r\n        return arrayUsername;\r\n        \r\n    }\r\n    \r\n    function getRegisteredAddresses() public view returns  ( address [] memory){\r\n        \r\n        return arrayAddresses;\r\n        \r\n    }\r\n\r\n\t\r\n\tmodifier onlyOwner {\r\n\t\trequire(msg.sender == owner, \"Only owner is allowed\");\r\n\t\t_;\r\n\t}\r\n\r\n}",
  "sourcePath": "C:\\Users\\tahaa\\OneDrive\\Desktop\\JobAttendence\\backend\\truffle\\contracts\\AttendanceV3.sol",
  "compiler": {
    "name": "solc",
    "version": "0.5.16+commit.9c3226ce.Emscripten.clang"
  },
  "schemaVersion": "3.1.0",
  "updatedAt": "2020-06-07T07:05:57.603Z",
  "devdoc": {
    "methods": {}
  },
  "userdoc": {
    "methods": {}
  }
}