{
  "contractName": "AttendanceV4",
  "abi": [
    {
      "inputs": [],
      "payable": false,
      "stateMutability": "nonpayable",
      "type": "constructor"
    },
    {
      "constant": true,
      "inputs": [],
      "name": "owner",
      "outputs": [
        {
          "internalType": "address",
          "name": "",
          "type": "address"
        }
      ],
      "payable": false,
      "stateMutability": "view",
      "type": "function"
    },
    {
      "constant": false,
      "inputs": [
        {
          "components": [
            {
              "internalType": "string",
              "name": "day",
              "type": "string"
            },
            {
              "internalType": "string",
              "name": "month",
              "type": "string"
            },
            {
              "internalType": "string",
              "name": "year",
              "type": "string"
            }
          ],
          "internalType": "struct AttendanceV4.Datee",
          "name": "_date",
          "type": "tuple"
        },
        {
          "components": [
            {
              "internalType": "string",
              "name": "hour",
              "type": "string"
            },
            {
              "internalType": "string",
              "name": "minute",
              "type": "string"
            }
          ],
          "internalType": "struct AttendanceV4.Timee",
          "name": "_time",
          "type": "tuple"
        },
        {
          "internalType": "address",
          "name": "_address",
          "type": "address"
        }
      ],
      "name": "markEnteranceAttendance",
      "outputs": [],
      "payable": false,
      "stateMutability": "nonpayable",
      "type": "function"
    },
    {
      "constant": false,
      "inputs": [
        {
          "components": [
            {
              "internalType": "string",
              "name": "day",
              "type": "string"
            },
            {
              "internalType": "string",
              "name": "month",
              "type": "string"
            },
            {
              "internalType": "string",
              "name": "year",
              "type": "string"
            }
          ],
          "internalType": "struct AttendanceV4.Datee",
          "name": "_date",
          "type": "tuple"
        },
        {
          "components": [
            {
              "internalType": "string",
              "name": "hour",
              "type": "string"
            },
            {
              "internalType": "string",
              "name": "minute",
              "type": "string"
            }
          ],
          "internalType": "struct AttendanceV4.Timee",
          "name": "_time",
          "type": "tuple"
        },
        {
          "internalType": "address",
          "name": "_address",
          "type": "address"
        }
      ],
      "name": "markExitAttendance",
      "outputs": [],
      "payable": false,
      "stateMutability": "nonpayable",
      "type": "function"
    },
    {
      "constant": true,
      "inputs": [],
      "name": "getMarkEnteranceAttendance",
      "outputs": [
        {
          "components": [
            {
              "components": [
                {
                  "internalType": "string",
                  "name": "day",
                  "type": "string"
                },
                {
                  "internalType": "string",
                  "name": "month",
                  "type": "string"
                },
                {
                  "internalType": "string",
                  "name": "year",
                  "type": "string"
                }
              ],
              "internalType": "struct AttendanceV4.Datee",
              "name": "Date",
              "type": "tuple"
            },
            {
              "internalType": "address",
              "name": "acccountAddress",
              "type": "address"
            },
            {
              "components": [
                {
                  "internalType": "string",
                  "name": "hour",
                  "type": "string"
                },
                {
                  "internalType": "string",
                  "name": "minute",
                  "type": "string"
                }
              ],
              "internalType": "struct AttendanceV4.Timee",
              "name": "timeEntered",
              "type": "tuple"
            }
          ],
          "internalType": "struct AttendanceV4.Attendance[]",
          "name": "",
          "type": "tuple[]"
        }
      ],
      "payable": false,
      "stateMutability": "view",
      "type": "function"
    },
    {
      "constant": true,
      "inputs": [],
      "name": "getMarkExitAttendance",
      "outputs": [
        {
          "components": [
            {
              "components": [
                {
                  "internalType": "string",
                  "name": "day",
                  "type": "string"
                },
                {
                  "internalType": "string",
                  "name": "month",
                  "type": "string"
                },
                {
                  "internalType": "string",
                  "name": "year",
                  "type": "string"
                }
              ],
              "internalType": "struct AttendanceV4.Datee",
              "name": "Date",
              "type": "tuple"
            },
            {
              "internalType": "address",
              "name": "acccountAddress",
              "type": "address"
            },
            {
              "components": [
                {
                  "internalType": "string",
                  "name": "hour",
                  "type": "string"
                },
                {
                  "internalType": "string",
                  "name": "minute",
                  "type": "string"
                }
              ],
              "internalType": "struct AttendanceV4.Timee",
              "name": "timeEntered",
              "type": "tuple"
            }
          ],
          "internalType": "struct AttendanceV4.Attendance[]",
          "name": "",
          "type": "tuple[]"
        }
      ],
      "payable": false,
      "stateMutability": "view",
      "type": "function"
    },
    {
      "constant": false,
      "inputs": [
        {
          "components": [
            {
              "internalType": "string",
              "name": "day",
              "type": "string"
            },
            {
              "internalType": "string",
              "name": "month",
              "type": "string"
            },
            {
              "internalType": "string",
              "name": "year",
              "type": "string"
            }
          ],
          "internalType": "struct AttendanceV4.Datee",
          "name": "_date",
          "type": "tuple"
        }
      ],
      "name": "makeEnteranceAttendanceArrayByDate",
      "outputs": [],
      "payable": false,
      "stateMutability": "nonpayable",
      "type": "function"
    },
    {
      "constant": true,
      "inputs": [],
      "name": "getEnteranceAttendanceArrayByDate",
      "outputs": [
        {
          "components": [
            {
              "components": [
                {
                  "internalType": "string",
                  "name": "day",
                  "type": "string"
                },
                {
                  "internalType": "string",
                  "name": "month",
                  "type": "string"
                },
                {
                  "internalType": "string",
                  "name": "year",
                  "type": "string"
                }
              ],
              "internalType": "struct AttendanceV4.Datee",
              "name": "Date",
              "type": "tuple"
            },
            {
              "internalType": "address",
              "name": "acccountAddress",
              "type": "address"
            },
            {
              "components": [
                {
                  "internalType": "string",
                  "name": "hour",
                  "type": "string"
                },
                {
                  "internalType": "string",
                  "name": "minute",
                  "type": "string"
                }
              ],
              "internalType": "struct AttendanceV4.Timee",
              "name": "timeEntered",
              "type": "tuple"
            }
          ],
          "internalType": "struct AttendanceV4.Attendance[]",
          "name": "",
          "type": "tuple[]"
        }
      ],
      "payable": false,
      "stateMutability": "view",
      "type": "function"
    },
    {
      "constant": false,
      "inputs": [
        {
          "components": [
            {
              "internalType": "string",
              "name": "day",
              "type": "string"
            },
            {
              "internalType": "string",
              "name": "month",
              "type": "string"
            },
            {
              "internalType": "string",
              "name": "year",
              "type": "string"
            }
          ],
          "internalType": "struct AttendanceV4.Datee",
          "name": "_date",
          "type": "tuple"
        }
      ],
      "name": "makeExitAttendanceArrayByDate",
      "outputs": [],
      "payable": false,
      "stateMutability": "nonpayable",
      "type": "function"
    },
    {
      "constant": true,
      "inputs": [],
      "name": "getExitAttendanceArrayByDate",
      "outputs": [
        {
          "components": [
            {
              "components": [
                {
                  "internalType": "string",
                  "name": "day",
                  "type": "string"
                },
                {
                  "internalType": "string",
                  "name": "month",
                  "type": "string"
                },
                {
                  "internalType": "string",
                  "name": "year",
                  "type": "string"
                }
              ],
              "internalType": "struct AttendanceV4.Datee",
              "name": "Date",
              "type": "tuple"
            },
            {
              "internalType": "address",
              "name": "acccountAddress",
              "type": "address"
            },
            {
              "components": [
                {
                  "internalType": "string",
                  "name": "hour",
                  "type": "string"
                },
                {
                  "internalType": "string",
                  "name": "minute",
                  "type": "string"
                }
              ],
              "internalType": "struct AttendanceV4.Timee",
              "name": "timeEntered",
              "type": "tuple"
            }
          ],
          "internalType": "struct AttendanceV4.Attendance[]",
          "name": "",
          "type": "tuple[]"
        }
      ],
      "payable": false,
      "stateMutability": "view",
      "type": "function"
    },
    {
      "constant": false,
      "inputs": [
        {
          "internalType": "string",
          "name": "_username",
          "type": "string"
        },
        {
          "internalType": "string",
          "name": "_password",
          "type": "string"
        },
        {
          "internalType": "address",
          "name": "_acccountAddress",
          "type": "address"
        }
      ],
      "name": "registerEmployee",
      "outputs": [],
      "payable": false,
      "stateMutability": "nonpayable",
      "type": "function"
    },
    {
      "constant": false,
      "inputs": [
        {
          "internalType": "string",
          "name": "_username",
          "type": "string"
        },
        {
          "internalType": "string",
          "name": "_password",
          "type": "string"
        }
      ],
      "name": "verifyUser",
      "outputs": [],
      "payable": false,
      "stateMutability": "nonpayable",
      "type": "function"
    },
    {
      "constant": true,
      "inputs": [],
      "name": "verifyUserResults",
      "outputs": [
        {
          "components": [
            {
              "internalType": "address",
              "name": "acccountAddress",
              "type": "address"
            },
            {
              "internalType": "bool",
              "name": "isVerified",
              "type": "bool"
            }
          ],
          "internalType": "struct AttendanceV4.caseVerifiedStruct",
          "name": "",
          "type": "tuple"
        }
      ],
      "payable": false,
      "stateMutability": "view",
      "type": "function"
    },
    {
      "constant": true,
      "inputs": [],
      "name": "getRegisteredUserName",
      "outputs": [
        {
          "internalType": "string[]",
          "name": "",
          "type": "string[]"
        }
      ],
      "payable": false,
      "stateMutability": "view",
      "type": "function"
    },
    {
      "constant": true,
      "inputs": [],
      "name": "getRegisteredAddresses",
      "outputs": [
        {
          "internalType": "address[]",
          "name": "",
          "type": "address[]"
        }
      ],
      "payable": false,
      "stateMutability": "view",
      "type": "function"
    },
    {
      "constant": true,
      "inputs": [
        {
          "internalType": "string",
          "name": "s",
          "type": "string"
        }
      ],
      "name": "stringToUint",
      "outputs": [
        {
          "internalType": "uint256",
          "name": "result",
          "type": "uint256"
        }
      ],
      "payable": false,
      "stateMutability": "view",
      "type": "function"
    },
    {
      "constant": false,
      "inputs": [
        {
          "internalType": "string",
          "name": "_a",
          "type": "string"
        },
        {
          "internalType": "string",
          "name": "_b",
          "type": "string"
        }
      ],
      "name": "equal",
      "outputs": [
        {
          "internalType": "bool",
          "name": "",
          "type": "bool"
        }
      ],
      "payable": false,
      "stateMutability": "nonpayable",
      "type": "function"
    },
    {
      "constant": false,
      "inputs": [
        {
          "internalType": "string",
          "name": "_a",
          "type": "string"
        },
        {
          "internalType": "string",
          "name": "_b",
          "type": "string"
        }
      ],
      "name": "compare",
      "outputs": [
        {
          "internalType": "int256",
          "name": "",
          "type": "int256"
        }
      ],
      "payable": false,
      "stateMutability": "nonpayable",
      "type": "function"
    }
  ],
  "bytecode": "0x60806040523480156200001157600080fd5b5033600960006101000a81548173ffffffffffffffffffffffffffffffffffffffff021916908373ffffffffffffffffffffffffffffffffffffffff1602179055506009600f81905550601160108190555060405180606001604052806040518060400160405280600281526020017f323300000000000000000000000000000000000000000000000000000000000081525081526020016040518060400160405280600281526020017f303700000000000000000000000000000000000000000000000000000000000081525081526020016040518060400160405280600481526020017f3139393700000000000000000000000000000000000000000000000000000000815250815250600360008201518160000190805190602001906200013d929190620002e1565b5060208201518160010190805190602001906200015c929190620002e1565b5060408201518160020190805190602001906200017b929190620002e1565b5090505060405180604001604052806040518060400160405280600281526020017f313200000000000000000000000000000000000000000000000000000000000081525081526020016040518060400160405280600281526020017f3031000000000000000000000000000000000000000000000000000000000000815250815250600660008201518160000190805190602001906200021e929190620002e1565b5060208201518160010190805190602001906200023d929190620002e1565b5090505060405180604001604052803373ffffffffffffffffffffffffffffffffffffffff16815260200160001515815250600a60008201518160000160006101000a81548173ffffffffffffffffffffffffffffffffffffffff021916908373ffffffffffffffffffffffffffffffffffffffff16021790555060208201518160000160146101000a81548160ff02191690831515021790555090505062000390565b828054600181600116156101000203166002900490600052602060002090601f016020900481019282601f106200032457805160ff191683800117855562000355565b8280016001018555821562000355579182015b828111156200035457825182559160200191906001019062000337565b5b50905062000364919062000368565b5090565b6200038d91905b80821115620003895760008160009055506001016200036f565b5090565b90565b6136e880620003a06000396000f3fe608060405234801561001057600080fd5b506004361061010b5760003560e01c80636c4a9f87116100a2578063bcee491811610071578063bcee4918146102a8578063c7c871b3146102c6578063d0ce5620146102e2578063d6ffa9bd146102fe578063fb70d5881461031c5761010b565b80636c4a9f87146102305780638da5cb5b1461024e578063aaa7fb2a1461026c578063b4291c951461028a5761010b565b80633f360b41116100de5780633f360b41146101ac5780633f788e48146101c857806346bdca9a146101e45780635d4dd1fe146102145761010b565b80631bd95155146101105780631beaf47114610140578063227ef0611461015e5780633a96fdd71461017c575b600080fd5b61012a60048036036101259190810190612d3a565b610338565b604051610137919061343a565b60405180910390f35b6101486103ab565b6040516101559190613390565b60405180910390f35b6101666107b2565b604051610173919061334c565b60405180910390f35b61019660048036036101919190810190612d7b565b610840565b6040516101a391906133cd565b60405180910390f35b6101c660048036036101c19190810190612d7b565b6109fe565b005b6101e260048036036101dd9190810190612e66565b610d0d565b005b6101fe60048036036101f99190810190612d7b565b611134565b60405161020b91906133b2565b60405180910390f35b61022e60048036036102299190810190612e66565b61114a565b005b610238611571565b6040516102459190613390565b60405180910390f35b610256611978565b6040516102639190613331565b60405180910390f35b61027461199e565b6040516102819190613390565b60405180910390f35b610292611da5565b60405161029f919061336e565b60405180910390f35b6102b0611e8e565b6040516102bd9190613390565b60405180910390f35b6102e060048036036102db9190810190612ea7565b612295565b005b6102fc60048036036102f79190810190612ea7565b6123f5565b005b610306612555565b604051610313919061341f565b60405180910390f35b61033660048036036103319190810190612de7565b6125e0565b005b600060608290506000809250600090505b81518110156103a457600082828151811061036057fe5b602001015160f81c60f81b60f81c60ff16905060308110158015610385575060398111155b156103965760308103600a85020193505b508080600101915050610349565b5050919050565b6060600b805480602002602001604051908101604052809291908181526020016000905b828210156107a9578382906000526020600020906006020160405180606001604052908160008201604051806060016040529081600082018054600181600116156101000203166002900480601f01602080910402602001604051908101604052809291908181526020018280546001816001161561010002031660029004801561049b5780601f106104705761010080835404028352916020019161049b565b820191906000526020600020905b81548152906001019060200180831161047e57829003601f168201915b50505050508152602001600182018054600181600116156101000203166002900480601f01602080910402602001604051908101604052809291908181526020018280546001816001161561010002031660029004801561053d5780601f106105125761010080835404028352916020019161053d565b820191906000526020600020905b81548152906001019060200180831161052057829003601f168201915b50505050508152602001600282018054600181600116156101000203166002900480601f0160208091040260200160405190810160405280929190818152602001828054600181600116156101000203166002900480156105df5780601f106105b4576101008083540402835291602001916105df565b820191906000526020600020905b8154815290600101906020018083116105c257829003601f168201915b50505050508152505081526020016003820160009054906101000a900473ffffffffffffffffffffffffffffffffffffffff1673ffffffffffffffffffffffffffffffffffffffff1673ffffffffffffffffffffffffffffffffffffffff16815260200160048201604051806040016040529081600082018054600181600116156101000203166002900480601f0160208091040260200160405190810160405280929190818152602001828054600181600116156101000203166002900480156106eb5780601f106106c0576101008083540402835291602001916106eb565b820191906000526020600020905b8154815290600101906020018083116106ce57829003601f168201915b50505050508152602001600182018054600181600116156101000203166002900480601f01602080910402602001604051908101604052809291908181526020018280546001816001161561010002031660029004801561078d5780601f106107625761010080835404028352916020019161078d565b820191906000526020600020905b81548152906001019060200180831161077057829003601f168201915b50505050508152505081525050815260200190600101906103cf565b50505050905090565b6060600280548060200260200160405190810160405280929190818152602001828054801561083657602002820191906000526020600020905b8160009054906101000a900473ffffffffffffffffffffffffffffffffffffffff1673ffffffffffffffffffffffffffffffffffffffff16815260200190600101908083116107ec575b5050505050905090565b600060608390506060839050600082519050808251101561086057815190505b60008090505b818110156109a45782818151811061087a57fe5b602001015160f81c60f81b7effffffffffffffffffffffffffffffffffffffffffffffffffffffffffffff19168482815181106108b357fe5b602001015160f81c60f81b7effffffffffffffffffffffffffffffffffffffffffffffffffffffffffffff19161015610912577fffffffffffffffffffffffffffffffffffffffffffffffffffffffffffffffff9450505050506109f8565b82818151811061091e57fe5b602001015160f81c60f81b7effffffffffffffffffffffffffffffffffffffffffffffffffffffffffffff191684828151811061095757fe5b602001015160f81c60f81b7effffffffffffffffffffffffffffffffffffffffffffffffffffffffffffff191611156109975760019450505050506109f8565b8080600101915050610866565b508151835110156109da577fffffffffffffffffffffffffffffffffffffffffffffffffffffffffffffffff93505050506109f8565b8151835111156109f057600193505050506109f8565b600093505050505b92915050565b600080905060008090505b600080549050811015610c5f573073ffffffffffffffffffffffffffffffffffffffff166346bdca9a60008381548110610a3f57fe5b9060005260206000209060030201600001866040518363ffffffff1660e01b8152600401610a6e9291906133e8565b602060405180830381600087803b158015610a8857600080fd5b505af1158015610a9c573d6000803e3d6000fd5b505050506040513d601f19601f82011682018060405250610ac09190810190612d11565b15610c52573073ffffffffffffffffffffffffffffffffffffffff166346bdca9a60008381548110610aee57fe5b9060005260206000209060030201600101856040518363ffffffff1660e01b8152600401610b1d9291906133e8565b602060405180830381600087803b158015610b3757600080fd5b505af1158015610b4b573d6000803e3d6000fd5b505050506040513d601f19601f82011682018060405250610b6f9190810190612d11565b15610c5157604051806040016040528060008381548110610b8c57fe5b906000526020600020906003020160020160009054906101000a900473ffffffffffffffffffffffffffffffffffffffff1673ffffffffffffffffffffffffffffffffffffffff16815260200160011515815250600a60008201518160000160006101000a81548173ffffffffffffffffffffffffffffffffffffffff021916908373ffffffffffffffffffffffffffffffffffffffff16021790555060208201518160000160146101000a81548160ff021916908315150217905550905050600191505b5b8080600101915050610a09565b50600015158115151415610d085760405180604001604052803373ffffffffffffffffffffffffffffffffffffffff16815260200160001515815250600a60008201518160000160006101000a81548173ffffffffffffffffffffffffffffffffffffffff021916908373ffffffffffffffffffffffffffffffffffffffff16021790555060208201518160000160146101000a81548160ff0219169083151502179055509050505b505050565b600d6000610d1b9190612778565b60008090505b600b8054905081101561113057610df5600b8281548110610d3e57fe5b90600052602060002090600602016000016000018054600181600116156101000203166002900480601f016020809104026020016040519081016040528092919081815260200182805460018160011615610100020316600290048015610de65780601f10610dbb57610100808354040283529160200191610de6565b820191906000526020600020905b815481529060010190602001808311610dc957829003601f168201915b50505050508360000151611134565b1561112357610ec1600b8281548110610e0a57fe5b90600052602060002090600602016000016001018054600181600116156101000203166002900480601f016020809104026020016040519081016040528092919081815260200182805460018160011615610100020316600290048015610eb25780601f10610e8757610100808354040283529160200191610eb2565b820191906000526020600020905b815481529060010190602001808311610e9557829003601f168201915b50505050508360200151611134565b1561112257610f8d600b8281548110610ed657fe5b90600052602060002090600602016000016002018054600181600116156101000203166002900480601f016020809104026020016040519081016040528092919081815260200182805460018160011615610100020316600290048015610f7e5780601f10610f5357610100808354040283529160200191610f7e565b820191906000526020600020905b815481529060010190602001808311610f6157829003601f168201915b50505050508360400151611134565b1561112157600d600b8281548110610fa157fe5b90600052602060002090600602019080600181540180825580915050906001820390600052602060002090600602016000909192909190915060008201816000016000820181600001908054600181600116156101000203166002900461100992919061279c565b506001820181600101908054600181600116156101000203166002900461103192919061279c565b506002820181600201908054600181600116156101000203166002900461105992919061279c565b5050506003820160009054906101000a900473ffffffffffffffffffffffffffffffffffffffff168160030160006101000a81548173ffffffffffffffffffffffffffffffffffffffff021916908373ffffffffffffffffffffffffffffffffffffffff1602179055506004820181600401600082018160000190805460018160011615610100020316600290046110f292919061279c565b506001820181600101908054600181600116156101000203166002900461111a92919061279c565b5050505050505b5b5b8080600101915050610d21565b5050565b6000806111418484610840565b14905092915050565b600e60006111589190612778565b60008090505b600c8054905081101561156d57611232600c828154811061117b57fe5b90600052602060002090600602016000016000018054600181600116156101000203166002900480601f0160208091040260200160405190810160405280929190818152602001828054600181600116156101000203166002900480156112235780601f106111f857610100808354040283529160200191611223565b820191906000526020600020905b81548152906001019060200180831161120657829003601f168201915b50505050508360000151611134565b15611560576112fe600c828154811061124757fe5b90600052602060002090600602016000016001018054600181600116156101000203166002900480601f0160208091040260200160405190810160405280929190818152602001828054600181600116156101000203166002900480156112ef5780601f106112c4576101008083540402835291602001916112ef565b820191906000526020600020905b8154815290600101906020018083116112d257829003601f168201915b50505050508360200151611134565b1561155f576113ca600c828154811061131357fe5b90600052602060002090600602016000016002018054600181600116156101000203166002900480601f0160208091040260200160405190810160405280929190818152602001828054600181600116156101000203166002900480156113bb5780601f10611390576101008083540402835291602001916113bb565b820191906000526020600020905b81548152906001019060200180831161139e57829003601f168201915b50505050508360400151611134565b1561155e57600e600c82815481106113de57fe5b90600052602060002090600602019080600181540180825580915050906001820390600052602060002090600602016000909192909190915060008201816000016000820181600001908054600181600116156101000203166002900461144692919061279c565b506001820181600101908054600181600116156101000203166002900461146e92919061279c565b506002820181600201908054600181600116156101000203166002900461149692919061279c565b5050506003820160009054906101000a900473ffffffffffffffffffffffffffffffffffffffff168160030160006101000a81548173ffffffffffffffffffffffffffffffffffffffff021916908373ffffffffffffffffffffffffffffffffffffffff16021790555060048201816004016000820181600001908054600181600116156101000203166002900461152f92919061279c565b506001820181600101908054600181600116156101000203166002900461155792919061279c565b5050505050505b5b5b808060010191505061115e565b5050565b6060600e805480602002602001604051908101604052809291908181526020016000905b8282101561196f578382906000526020600020906006020160405180606001604052908160008201604051806060016040529081600082018054600181600116156101000203166002900480601f0160208091040260200160405190810160405280929190818152602001828054600181600116156101000203166002900480156116615780601f1061163657610100808354040283529160200191611661565b820191906000526020600020905b81548152906001019060200180831161164457829003601f168201915b50505050508152602001600182018054600181600116156101000203166002900480601f0160208091040260200160405190810160405280929190818152602001828054600181600116156101000203166002900480156117035780601f106116d857610100808354040283529160200191611703565b820191906000526020600020905b8154815290600101906020018083116116e657829003601f168201915b50505050508152602001600282018054600181600116156101000203166002900480601f0160208091040260200160405190810160405280929190818152602001828054600181600116156101000203166002900480156117a55780601f1061177a576101008083540402835291602001916117a5565b820191906000526020600020905b81548152906001019060200180831161178857829003601f168201915b50505050508152505081526020016003820160009054906101000a900473ffffffffffffffffffffffffffffffffffffffff1673ffffffffffffffffffffffffffffffffffffffff1673ffffffffffffffffffffffffffffffffffffffff16815260200160048201604051806040016040529081600082018054600181600116156101000203166002900480601f0160208091040260200160405190810160405280929190818152602001828054600181600116156101000203166002900480156118b15780601f10611886576101008083540402835291602001916118b1565b820191906000526020600020905b81548152906001019060200180831161189457829003601f168201915b50505050508152602001600182018054600181600116156101000203166002900480601f0160208091040260200160405190810160405280929190818152602001828054600181600116156101000203166002900480156119535780601f1061192857610100808354040283529160200191611953565b820191906000526020600020905b81548152906001019060200180831161193657829003601f168201915b5050505050815250508152505081526020019060010190611595565b50505050905090565b600960009054906101000a900473ffffffffffffffffffffffffffffffffffffffff1681565b6060600c805480602002602001604051908101604052809291908181526020016000905b82821015611d9c578382906000526020600020906006020160405180606001604052908160008201604051806060016040529081600082018054600181600116156101000203166002900480601f016020809104026020016040519081016040528092919081815260200182805460018160011615610100020316600290048015611a8e5780601f10611a6357610100808354040283529160200191611a8e565b820191906000526020600020905b815481529060010190602001808311611a7157829003601f168201915b50505050508152602001600182018054600181600116156101000203166002900480601f016020809104026020016040519081016040528092919081815260200182805460018160011615610100020316600290048015611b305780601f10611b0557610100808354040283529160200191611b30565b820191906000526020600020905b815481529060010190602001808311611b1357829003601f168201915b50505050508152602001600282018054600181600116156101000203166002900480601f016020809104026020016040519081016040528092919081815260200182805460018160011615610100020316600290048015611bd25780601f10611ba757610100808354040283529160200191611bd2565b820191906000526020600020905b815481529060010190602001808311611bb557829003601f168201915b50505050508152505081526020016003820160009054906101000a900473ffffffffffffffffffffffffffffffffffffffff1673ffffffffffffffffffffffffffffffffffffffff1673ffffffffffffffffffffffffffffffffffffffff16815260200160048201604051806040016040529081600082018054600181600116156101000203166002900480601f016020809104026020016040519081016040528092919081815260200182805460018160011615610100020316600290048015611cde5780601f10611cb357610100808354040283529160200191611cde565b820191906000526020600020905b815481529060010190602001808311611cc157829003601f168201915b50505050508152602001600182018054600181600116156101000203166002900480601f016020809104026020016040519081016040528092919081815260200182805460018160011615610100020316600290048015611d805780601f10611d5557610100808354040283529160200191611d80565b820191906000526020600020905b815481529060010190602001808311611d6357829003601f168201915b50505050508152505081525050815260200190600101906119c2565b50505050905090565b60606001805480602002602001604051908101604052809291908181526020016000905b82821015611e85578382906000526020600020018054600181600116156101000203166002900480601f016020809104026020016040519081016040528092919081815260200182805460018160011615610100020316600290048015611e715780601f10611e4657610100808354040283529160200191611e71565b820191906000526020600020905b815481529060010190602001808311611e5457829003601f168201915b505050505081526020019060010190611dc9565b50505050905090565b6060600d805480602002602001604051908101604052809291908181526020016000905b8282101561228c578382906000526020600020906006020160405180606001604052908160008201604051806060016040529081600082018054600181600116156101000203166002900480601f016020809104026020016040519081016040528092919081815260200182805460018160011615610100020316600290048015611f7e5780601f10611f5357610100808354040283529160200191611f7e565b820191906000526020600020905b815481529060010190602001808311611f6157829003601f168201915b50505050508152602001600182018054600181600116156101000203166002900480601f0160208091040260200160405190810160405280929190818152602001828054600181600116156101000203166002900480156120205780601f10611ff557610100808354040283529160200191612020565b820191906000526020600020905b81548152906001019060200180831161200357829003601f168201915b50505050508152602001600282018054600181600116156101000203166002900480601f0160208091040260200160405190810160405280929190818152602001828054600181600116156101000203166002900480156120c25780601f10612097576101008083540402835291602001916120c2565b820191906000526020600020905b8154815290600101906020018083116120a557829003601f168201915b50505050508152505081526020016003820160009054906101000a900473ffffffffffffffffffffffffffffffffffffffff1673ffffffffffffffffffffffffffffffffffffffff1673ffffffffffffffffffffffffffffffffffffffff16815260200160048201604051806040016040529081600082018054600181600116156101000203166002900480601f0160208091040260200160405190810160405280929190818152602001828054600181600116156101000203166002900480156121ce5780601f106121a3576101008083540402835291602001916121ce565b820191906000526020600020905b8154815290600101906020018083116121b157829003601f168201915b50505050508152602001600182018054600181600116156101000203166002900480601f0160208091040260200160405190810160405280929190818152602001828054600181600116156101000203166002900480156122705780601f1061224557610100808354040283529160200191612270565b820191906000526020600020905b81548152906001019060200180831161225357829003601f168201915b5050505050815250508152505081526020019060010190611eb2565b50505050905090565b61229d612823565b60405180606001604052808581526020018373ffffffffffffffffffffffffffffffffffffffff168152602001848152509050600c81908060018154018082558091505090600182039060005260206000209060060201600090919290919091506000820151816000016000820151816000019080519060200190612323929190612866565b506020820151816001019080519060200190612340929190612866565b50604082015181600201908051906020019061235d929190612866565b50505060208201518160030160006101000a81548173ffffffffffffffffffffffffffffffffffffffff021916908373ffffffffffffffffffffffffffffffffffffffff16021790555060408201518160040160008201518160000190805190602001906123cc929190612866565b5060208201518160010190805190602001906123e9929190612866565b50505050505050505050565b6123fd612823565b60405180606001604052808581526020018373ffffffffffffffffffffffffffffffffffffffff168152602001848152509050600b81908060018154018082558091505090600182039060005260206000209060060201600090919290919091506000820151816000016000820151816000019080519060200190612483929190612866565b5060208201518160010190805190602001906124a0929190612866565b5060408201518160020190805190602001906124bd929190612866565b50505060208201518160030160006101000a81548173ffffffffffffffffffffffffffffffffffffffff021916908373ffffffffffffffffffffffffffffffffffffffff160217905550604082015181600401600082015181600001908051906020019061252c929190612866565b506020820151816001019080519060200190612549929190612866565b50505050505050505050565b61255d6128e6565b600a6040518060400160405290816000820160009054906101000a900473ffffffffffffffffffffffffffffffffffffffff1673ffffffffffffffffffffffffffffffffffffffff1673ffffffffffffffffffffffffffffffffffffffff1681526020016000820160149054906101000a900460ff161515151581525050905090565b6125e8612918565b60405180606001604052808581526020018481526020018373ffffffffffffffffffffffffffffffffffffffff168152509050600081908060018154018082558091505090600182039060005260206000209060030201600090919290919091506000820151816000019080519060200190612665929190612866565b506020820151816001019080519060200190612682929190612866565b5060408201518160020160006101000a81548173ffffffffffffffffffffffffffffffffffffffff021916908373ffffffffffffffffffffffffffffffffffffffff160217905550505050600184908060018154018082558091505090600182039060005260206000200160009091929091909150908051906020019061270a92919061294f565b505060028290806001815401808255809150509060018203906000526020600020016000909192909190916101000a81548173ffffffffffffffffffffffffffffffffffffffff021916908373ffffffffffffffffffffffffffffffffffffffff1602179055505050505050565b508054600082556006029060005260206000209081019061279991906129cf565b50565b828054600181600116156101000203166002900490600052602060002090601f016020900481019282601f106127d55780548555612812565b8280016001018555821561281257600052602060002091601f016020900482015b828111156128115782548255916001019190600101906127f6565b5b50905061281f9190612a73565b5090565b6040518060600160405280612836612a98565b8152602001600073ffffffffffffffffffffffffffffffffffffffff168152602001612860612ab9565b81525090565b828054600181600116156101000203166002900490600052602060002090601f016020900481019282601f106128a757805160ff19168380011785556128d5565b828001600101855582156128d5579182015b828111156128d45782518255916020019190600101906128b9565b5b5090506128e29190612a73565b5090565b6040518060400160405280600073ffffffffffffffffffffffffffffffffffffffff1681526020016000151581525090565b60405180606001604052806060815260200160608152602001600073ffffffffffffffffffffffffffffffffffffffff1681525090565b828054600181600116156101000203166002900490600052602060002090601f016020900481019282601f1061299057805160ff19168380011785556129be565b828001600101855582156129be579182015b828111156129bd5782518255916020019190600101906129a2565b5b5090506129cb9190612a73565b5090565b612a7091905b80821115612a6c576000808201600080820160006129f39190612ad3565b600182016000612a039190612ad3565b600282016000612a139190612ad3565b50506003820160006101000a81549073ffffffffffffffffffffffffffffffffffffffff02191690556004820160008082016000612a519190612ad3565b600182016000612a619190612ad3565b5050506006016129d5565b5090565b90565b612a9591905b80821115612a91576000816000905550600101612a79565b5090565b90565b60405180606001604052806060815260200160608152602001606081525090565b604051806040016040528060608152602001606081525090565b50805460018160011615610100020316600290046000825580601f10612af95750612b18565b601f016020900490600052602060002090810190612b179190612a73565b5b50565b600081359050612b2a81613677565b92915050565b600081519050612b3f8161368e565b92915050565b600082601f830112612b5657600080fd5b8135612b69612b6482613482565b613455565b91508082526020830160208301858383011115612b8557600080fd5b612b90838284613624565b50505092915050565b600082601f830112612baa57600080fd5b8135612bbd612bb8826134ae565b613455565b91508082526020830160208301858383011115612bd957600080fd5b612be4838284613624565b50505092915050565b600060608284031215612bff57600080fd5b612c096060613455565b9050600082013567ffffffffffffffff811115612c2557600080fd5b612c3184828501612b45565b600083015250602082013567ffffffffffffffff811115612c5157600080fd5b612c5d84828501612b45565b602083015250604082013567ffffffffffffffff811115612c7d57600080fd5b612c8984828501612b45565b60408301525092915050565b600060408284031215612ca757600080fd5b612cb16040613455565b9050600082013567ffffffffffffffff811115612ccd57600080fd5b612cd984828501612b45565b600083015250602082013567ffffffffffffffff811115612cf957600080fd5b612d0584828501612b45565b60208301525092915050565b600060208284031215612d2357600080fd5b6000612d3184828501612b30565b91505092915050565b600060208284031215612d4c57600080fd5b600082013567ffffffffffffffff811115612d6657600080fd5b612d7284828501612b99565b91505092915050565b60008060408385031215612d8e57600080fd5b600083013567ffffffffffffffff811115612da857600080fd5b612db485828601612b99565b925050602083013567ffffffffffffffff811115612dd157600080fd5b612ddd85828601612b99565b9150509250929050565b600080600060608486031215612dfc57600080fd5b600084013567ffffffffffffffff811115612e1657600080fd5b612e2286828701612b99565b935050602084013567ffffffffffffffff811115612e3f57600080fd5b612e4b86828701612b99565b9250506040612e5c86828701612b1b565b9150509250925092565b600060208284031215612e7857600080fd5b600082013567ffffffffffffffff811115612e9257600080fd5b612e9e84828501612bed565b91505092915050565b600080600060608486031215612ebc57600080fd5b600084013567ffffffffffffffff811115612ed657600080fd5b612ee286828701612bed565b935050602084013567ffffffffffffffff811115612eff57600080fd5b612f0b86828701612c95565b9250506040612f1c86828701612b1b565b9150509250925092565b6000612f328383612f66565b60208301905092915050565b6000612f4a8383613132565b905092915050565b6000612f5e83836131fa565b905092915050565b612f6f816135d2565b82525050565b612f7e816135d2565b82525050565b6000612f8f8261351f565b612f99818561357d565b9350612fa4836134da565b8060005b83811015612fd5578151612fbc8882612f26565b9750612fc783613556565b925050600181019050612fa8565b5085935050505092915050565b6000612fed8261352a565b612ff7818561358e565b935083602082028501613009856134ea565b8060005b8581101561304557848403895281516130268582612f3e565b945061303183613563565b925060208a0199505060018101905061300d565b50829750879550505050505092915050565b600061306282613535565b61306c818561359f565b93508360208202850161307e856134fa565b8060005b858110156130ba578484038952815161309b8582612f52565b94506130a683613570565b925060208a01995050600181019050613082565b50829750879550505050505092915050565b6130d5816135e4565b82525050565b6130e4816135e4565b82525050565b6130f3816135f0565b82525050565b60006131048261354b565b61310e81856135c1565b935061311e818560208601613633565b61312781613666565b840191505092915050565b600061313d82613540565b61314781856135b0565b9350613157818560208601613633565b61316081613666565b840191505092915050565b60008154600181166000811461318857600181146131ae576131f2565b607f600283041661319981876135c1565b955060ff1983168652602086019350506131f2565b600282046131bc81876135c1565b95506131c78561350a565b60005b828110156131e9578154818901526001820191506020810190506131ca565b80880195505050505b505092915050565b600060608301600083015184820360008601526132178282613251565b915050602083015161322c6020860182612f66565b506040830151848203604086015261324482826132af565b9150508091505092915050565b6000606083016000830151848203600086015261326e8282613132565b915050602083015184820360208601526132888282613132565b915050604083015184820360408601526132a28282613132565b9150508091505092915050565b600060408301600083015184820360008601526132cc8282613132565b915050602083015184820360208601526132e68282613132565b9150508091505092915050565b6040820160008201516133096000850182612f66565b50602082015161331c60208501826130cc565b50505050565b61332b8161361a565b82525050565b60006020820190506133466000830184612f75565b92915050565b600060208201905081810360008301526133668184612f84565b905092915050565b600060208201905081810360008301526133888184612fe2565b905092915050565b600060208201905081810360008301526133aa8184613057565b905092915050565b60006020820190506133c760008301846130db565b92915050565b60006020820190506133e260008301846130ea565b92915050565b60006040820190508181036000830152613402818561316b565b9050818103602083015261341681846130f9565b90509392505050565b600060408201905061343460008301846132f3565b92915050565b600060208201905061344f6000830184613322565b92915050565b6000604051905081810181811067ffffffffffffffff8211171561347857600080fd5b8060405250919050565b600067ffffffffffffffff82111561349957600080fd5b601f19601f8301169050602081019050919050565b600067ffffffffffffffff8211156134c557600080fd5b601f19601f8301169050602081019050919050565b6000819050602082019050919050565b6000819050602082019050919050565b6000819050602082019050919050565b60008190508160005260206000209050919050565b600081519050919050565b600081519050919050565b600081519050919050565b600081519050919050565b600081519050919050565b6000602082019050919050565b6000602082019050919050565b6000602082019050919050565b600082825260208201905092915050565b600082825260208201905092915050565b600082825260208201905092915050565b600082825260208201905092915050565b600082825260208201905092915050565b60006135dd826135fa565b9050919050565b60008115159050919050565b6000819050919050565b600073ffffffffffffffffffffffffffffffffffffffff82169050919050565b6000819050919050565b82818337600083830152505050565b60005b83811015613651578082015181840152602081019050613636565b83811115613660576000848401525b50505050565b6000601f19601f8301169050919050565b613680816135d2565b811461368b57600080fd5b50565b613697816135e4565b81146136a257600080fd5b5056fea365627a7a723158207ce7de7f4c3a8eb25f1d8b65c31ef8a7a4820f0f9d47012dfb28687444c3d83f6c6578706572696d656e74616cf564736f6c63430005100040",
  "source": "pragma solidity >=0.4.25 <0.7.0;\r\npragma experimental ABIEncoderV2;\r\n\r\n\r\n\r\ncontract AttendanceV4 {\r\n    \r\n    // This Employee model will be used for login and register \r\n    struct Employee{\r\n        string username;\r\n        string password;\r\n        address acccountAddress;\r\n     \r\n    }\r\n    \r\n    struct Attendance{\r\n        Datee Date;\r\n        address acccountAddress;\r\n        Timee timeEntered;\r\n    }\r\n    \r\n    \r\n    struct caseVerifiedStruct{  // this is for retuning if username and password is correct\r\n        address acccountAddress;\r\n        bool isVerified;\r\n    }\r\n    \r\n    struct Datee{\r\n        string day;\r\n        string month;\r\n        string year;\r\n    }\r\n    \r\n    struct Timee{\r\n        string hour;\r\n        string minute;\r\n    }\r\n    \r\n    Employee [] private allEmployees; // there will be all employees\r\n    string [] arrayUsername;\r\n    address []  arrayAddresses;\r\n            \r\n    Datee globalPresentDate ;      // this is the date which will be compared with the present date\r\n    Timee globalPresentTime;    // this is the time which will be compared with the present time\r\n    string globalPresentDateString; // this will be used to map\r\n    \r\n    address public owner; // owner address save ho ga is me \r\n    \r\n    caseVerifiedStruct isVarifiedAddress;\r\n    \r\n    \r\n    Attendance [] enteryAttendance;\r\n    Attendance [] exitAttendance;\r\n    Attendance [] enteranceAttendanceArrayByDate;\r\n    Attendance [] exitAttendanceArrayByDate;\r\n    \r\n    \r\n    uint jobStartTimeHr; // job start time \r\n    uint jobEndTimeHr;  // job end time \r\n   \r\n    \r\n    constructor() public\r\n    {\r\n        owner=msg.sender;\r\n        \r\n        jobStartTimeHr=9; // 9 am \r\n        jobEndTimeHr=17; // 5 pm\r\n        \r\n        \r\n        globalPresentDate=Datee({day : \"23\" , month : \"07\" , year : \"1997\"}); // inicial date\r\n        globalPresentTime=Timee({hour : \"12\", minute : \"01\" }); // inicial time 24 hr clock\r\n        \r\n       isVarifiedAddress=caseVerifiedStruct({acccountAddress:msg.sender , isVerified:false});\r\n    }\r\n\r\n// Mark Attendance Below ................................................................................\r\n\r\n    \r\n \r\n        // bool dateChanged= false;\r\n        \r\n        // // comparing Date\r\n        // if ( stringToUint(_date.year) > stringToUint(globalPresentDate.year) ){\r\n        //     dateChanged=true;\r\n        //     globalPresentDate=Datee({day : _date.day , month : _date.month , year : _date.year });\r\n        // }\r\n        // else{\r\n        //     // year cant be smaller\r\n        //     // so here year can b equal\r\n            \r\n        //     if(stringToUint(_date.month) > stringToUint(globalPresentDate.month))\r\n        //     {\r\n        //         dateChanged=true;\r\n        //         globalPresentDate=Datee({day : _date.day , month : _date.month , year : _date.year });\r\n        //     }\r\n        //     else{\r\n        //         // month cant be smaller\r\n        //         // so here month can b equal\r\n                \r\n        //         // here day either be same or must b greater\r\n        //         if (stringToUint(_date.day) > stringToUint(globalPresentDate.day))\r\n        //         {\r\n        //             dateChanged=true;\r\n        //             globalPresentDate=Datee({day : _date.day , month : _date.month , year : _date.year });\r\n        //         }\r\n        //     }\r\n        // }\r\n        \r\n        // if(dateChanged==false){\r\n            \r\n        // }else{\r\n            \r\n            \r\n        //  }\r\n        \r\n    //   function markEnteranceAttendance(Datee _date, address _address ,) public {    \r\n          \r\n    //     //globalPresentDateString=append(_date.day,\"/\",_date.month,\"/\",_date.year);\r\n        \r\n        \r\n      \r\n    // }\r\n\r\n// Mark Attendance Above ................................................................................\r\n   \r\n    function markEnteranceAttendance(Datee memory _date, Timee memory _time , address _address) public  {\r\n       \r\n        Attendance memory attendance=Attendance({ Date: _date , acccountAddress: _address ,  timeEntered: _time});\r\n        enteryAttendance.push(attendance);\r\n    }\r\n   \r\n    function markExitAttendance(Datee memory _date, Timee memory _time , address  _address) public  {\r\n       \r\n        Attendance memory attendance=Attendance({ Date: _date , acccountAddress: _address ,  timeEntered: _time});\r\n        exitAttendance.push(attendance);\r\n    }\r\n    \r\n    function getMarkEnteranceAttendance() public view returns (Attendance [] memory) {\r\n       \r\n        return enteryAttendance;\r\n    }\r\n    \r\n    function getMarkExitAttendance() public view returns (Attendance [] memory) {\r\n       \r\n        return exitAttendance;\r\n    }\r\n    \r\n    function makeEnteranceAttendanceArrayByDate(Datee memory _date) public {\r\n        \r\n        delete enteranceAttendanceArrayByDate;\r\n        \r\n        \r\n        for (uint i=0;i<enteryAttendance.length;i++){\r\n            if( equal(enteryAttendance[i].Date.day, _date.day) ){\r\n                if(equal(enteryAttendance[i].Date.month, _date.month)){\r\n                    if(equal(enteryAttendance[i].Date.year, _date.year)){\r\n                        enteranceAttendanceArrayByDate.push(enteryAttendance[i]);\r\n                    }\r\n                }\r\n                \r\n            }\r\n        }\r\n        \r\n    }\r\n    \r\n    function getEnteranceAttendanceArrayByDate() public view returns (Attendance[] memory){\r\n        return enteranceAttendanceArrayByDate;\r\n    }\r\n    \r\n    function makeExitAttendanceArrayByDate(Datee memory _date) public {\r\n        \r\n        delete exitAttendanceArrayByDate;\r\n        \r\n        \r\n        for (uint i=0;i<exitAttendance.length;i++){\r\n            if( equal(exitAttendance[i].Date.day, _date.day) ){\r\n                if(equal(exitAttendance[i].Date.month, _date.month)){\r\n                    if(equal(exitAttendance[i].Date.year, _date.year)){\r\n                        exitAttendanceArrayByDate.push(exitAttendance[i]);\r\n                    }\r\n                }\r\n                \r\n            }\r\n        }\r\n        \r\n    }\r\n    \r\n    function getExitAttendanceArrayByDate() public view returns (Attendance[] memory){\r\n        return exitAttendanceArrayByDate;\r\n    }\r\n        \r\n\r\n    \r\n// Register and Verification Below ........................................................................\r\n    function registerEmployee (string memory _username, string memory _password, address _acccountAddress) public {\r\n        \r\n        Employee memory tempEmp=Employee({username:_username, password:_password ,  acccountAddress:_acccountAddress});\r\n        allEmployees.push(tempEmp);\r\n        arrayUsername.push(_username);\r\n        arrayAddresses.push(_acccountAddress);\r\n        \r\n    }\r\n    \r\n    \r\n    \r\n    function verifyUser(string memory _username, string memory _password) public {\r\n        \r\n        bool check= false;\r\n        \r\n        for(uint i=0 ;i<allEmployees.length; i++){\r\n            \r\n            if(this.equal(allEmployees[i].username, _username))\r\n            {\r\n                if( this.equal(allEmployees[i].password, _password))\r\n                {\r\n                    isVarifiedAddress=caseVerifiedStruct({acccountAddress:allEmployees[i].acccountAddress , isVerified:true});\r\n                   check=true;\r\n                }\r\n            }\r\n        }\r\n        \r\n        if(check== false)\r\n        {\r\n             isVarifiedAddress= caseVerifiedStruct({acccountAddress: msg.sender , isVerified:false});  // will return own address and check will be false \r\n        }\r\n        \r\n    }\r\n\r\n\r\n    function verifyUserResults() public view returns (caseVerifiedStruct memory)\r\n    {\r\n        return isVarifiedAddress;\r\n    }\r\n    function getRegisteredUserName() public view returns  ( string [] memory){\r\n        \r\n        return arrayUsername;\r\n        \r\n    }\r\n    \r\n    function getRegisteredAddresses() public view returns  ( address [] memory){\r\n        \r\n        return arrayAddresses;\r\n        \r\n    }\r\n    \r\n    \r\n// Fuction to append strings .................................................................    \r\n\r\n    function append(string memory a, string memory b, string memory c, string memory d, string memory e) internal pure returns (string memory) {\r\n    \r\n        return string(abi.encodePacked(a, b, c, d, e));\r\n    \r\n    }\r\n\r\n    \r\n//     Register and Verification Above ........................................................................\r\n  \r\n  \r\n  \r\n// This will convert String to Uint        \r\n    function stringToUint(string memory s) public view returns (uint result) {\r\n        bytes memory b = bytes(s);\r\n        uint i;\r\n        result = 0;\r\n        for (i = 0; i < b.length; i++) {\r\n            uint c = uint(uint8(b[i]));\r\n            if (c >= 48 && c <= 57) {\r\n                result = result * 10 + (c - 48);\r\n            }\r\n        }\r\n    }\r\n        \r\n    \r\n// These functions are of string.util for comparing two strings... Below .............................................\r\n    \r\n     function equal(string memory _a, string memory _b) public returns (bool) {\r\n        return compare(_a, _b) == 0;\r\n    }\r\n    \r\n    function compare(string memory _a, string memory _b) public returns (int) {\r\n        \r\n        bytes memory a = bytes(_a);\r\n        bytes memory b = bytes(_b);\r\n        uint minLength = a.length;\r\n        if (b.length < minLength) minLength = b.length;\r\n        //@todo unroll the loop into increments of 32 and do full 32 byte comparisons\r\n        for (uint i = 0; i < minLength; i ++)\r\n            if (a[i] < b[i])\r\n                return -1;\r\n            else if (a[i] > b[i])\r\n                return 1;\r\n        if (a.length < b.length)\r\n            return -1;\r\n        else if (a.length > b.length)\r\n            return 1;\r\n        else\r\n            return 0;\r\n    }\r\n    \r\n    \r\n// These functions are of string.util for comparing two strings .....Above ...............................................\r\n\r\n\t\r\n\tmodifier onlyOwner {\r\n\t\trequire(msg.sender == owner, \"Only owner is allowed\");\r\n\t\t_;\r\n\t}\r\n\r\n}",
  "sourcePath": "C:\\Users\\tahaa\\OneDrive\\Desktop\\JobAttendence\\backend\\truffle\\contracts\\AttendanceV4.sol",
  "compiler": {
    "name": "solc",
    "version": "0.5.16+commit.9c3226ce.Emscripten.clang"
  },
  "schemaVersion": "3.1.0",
  "updatedAt": "2020-06-07T07:06:02.552Z",
  "networkType": "ethereum",
  "devdoc": {
    "methods": {}
  },
  "userdoc": {
    "methods": {}
  }
}