{
  "contractName": "Attendance",
  "abi": [
    {
      "inputs": [],
      "payable": false,
      "stateMutability": "nonpayable",
      "type": "constructor"
    },
    {
      "constant": true,
      "inputs": [
        {
          "internalType": "uint256",
          "name": "",
          "type": "uint256"
        }
      ],
      "name": "addresses",
      "outputs": [
        {
          "internalType": "address",
          "name": "",
          "type": "address"
        }
      ],
      "payable": false,
      "stateMutability": "view",
      "type": "function"
    },
    {
      "constant": true,
      "inputs": [
        {
          "internalType": "address",
          "name": "",
          "type": "address"
        }
      ],
      "name": "employee",
      "outputs": [
        {
          "internalType": "string",
          "name": "name",
          "type": "string"
        },
        {
          "internalType": "string",
          "name": "status",
          "type": "string"
        },
        {
          "internalType": "bool",
          "name": "arrived",
          "type": "bool"
        }
      ],
      "payable": false,
      "stateMutability": "view",
      "type": "function"
    },
    {
      "constant": true,
      "inputs": [],
      "name": "owner",
      "outputs": [
        {
          "internalType": "address payable",
          "name": "",
          "type": "address"
        }
      ],
      "payable": false,
      "stateMutability": "view",
      "type": "function"
    },
    {
      "constant": false,
      "inputs": [
        {
          "internalType": "address payable",
          "name": "_emp",
          "type": "address"
        },
        {
          "internalType": "string",
          "name": "_name",
          "type": "string"
        }
      ],
      "name": "addEmployees",
      "outputs": [],
      "payable": false,
      "stateMutability": "nonpayable",
      "type": "function"
    },
    {
      "constant": true,
      "inputs": [],
      "name": "getPresentYear",
      "outputs": [
        {
          "internalType": "uint256",
          "name": "",
          "type": "uint256"
        }
      ],
      "payable": false,
      "stateMutability": "view",
      "type": "function"
    },
    {
      "constant": true,
      "inputs": [],
      "name": "getPresentDay",
      "outputs": [
        {
          "internalType": "uint256",
          "name": "",
          "type": "uint256"
        }
      ],
      "payable": false,
      "stateMutability": "view",
      "type": "function"
    },
    {
      "constant": true,
      "inputs": [],
      "name": "getPresentMonth",
      "outputs": [
        {
          "internalType": "uint256",
          "name": "",
          "type": "uint256"
        }
      ],
      "payable": false,
      "stateMutability": "view",
      "type": "function"
    },
    {
      "constant": true,
      "inputs": [],
      "name": "getS",
      "outputs": [
        {
          "internalType": "uint256",
          "name": "",
          "type": "uint256"
        }
      ],
      "payable": false,
      "stateMutability": "view",
      "type": "function"
    },
    {
      "constant": true,
      "inputs": [],
      "name": "getL",
      "outputs": [
        {
          "internalType": "uint256",
          "name": "",
          "type": "uint256"
        }
      ],
      "payable": false,
      "stateMutability": "view",
      "type": "function"
    },
    {
      "constant": true,
      "inputs": [],
      "name": "getNow",
      "outputs": [
        {
          "internalType": "uint256",
          "name": "",
          "type": "uint256"
        }
      ],
      "payable": false,
      "stateMutability": "view",
      "type": "function"
    },
    {
      "constant": false,
      "inputs": [],
      "name": "empArrive",
      "outputs": [],
      "payable": false,
      "stateMutability": "nonpayable",
      "type": "function"
    },
    {
      "constant": false,
      "inputs": [],
      "name": "empLeave",
      "outputs": [],
      "payable": false,
      "stateMutability": "nonpayable",
      "type": "function"
    },
    {
      "constant": true,
      "inputs": [
        {
          "internalType": "address payable",
          "name": "_emp",
          "type": "address"
        }
      ],
      "name": "getStatus",
      "outputs": [
        {
          "internalType": "string",
          "name": "",
          "type": "string"
        }
      ],
      "payable": false,
      "stateMutability": "view",
      "type": "function"
    },
    {
      "constant": true,
      "inputs": [
        {
          "internalType": "uint256",
          "name": "year",
          "type": "uint256"
        },
        {
          "internalType": "uint256",
          "name": "month",
          "type": "uint256"
        },
        {
          "internalType": "uint256",
          "name": "day",
          "type": "uint256"
        },
        {
          "internalType": "uint256",
          "name": "hour",
          "type": "uint256"
        },
        {
          "internalType": "uint256",
          "name": "minute",
          "type": "uint256"
        },
        {
          "internalType": "uint256",
          "name": "second",
          "type": "uint256"
        }
      ],
      "name": "getTimestampFromDateTime",
      "outputs": [
        {
          "internalType": "uint256",
          "name": "timestamp",
          "type": "uint256"
        }
      ],
      "payable": false,
      "stateMutability": "pure",
      "type": "function"
    },
    {
      "constant": true,
      "inputs": [],
      "name": "Day",
      "outputs": [
        {
          "internalType": "uint256",
          "name": "",
          "type": "uint256"
        }
      ],
      "payable": false,
      "stateMutability": "view",
      "type": "function"
    },
    {
      "constant": true,
      "inputs": [],
      "name": "Hour",
      "outputs": [
        {
          "internalType": "uint256",
          "name": "",
          "type": "uint256"
        }
      ],
      "payable": false,
      "stateMutability": "view",
      "type": "function"
    }
  ],
  "bytecode": "0x60806040523480156200001157600080fd5b50336000806101000a81548173ffffffffffffffffffffffffffffffffffffffff021916908373ffffffffffffffffffffffffffffffffffffffff1602179055506200009a6200006742620000f460201b60201c565b62000078426200012360201b60201c565b62000089426200015360201b60201c565b60046000806200018460201b60201c565b600381905550620000e8620000b542620000f460201b60201c565b620000c6426200012360201b60201c565b620000d7426200015360201b60201c565b600c6000806200018460201b60201c565b6004819055506200036d565b6000620001146201518083816200010757fe5b04620001a860201b60201c565b90505080915050809050919050565b6000620001436201518083816200013657fe5b04620001a860201b60201c565b9091505080915050809050919050565b6000620001736201518083816200016657fe5b04620001a860201b60201c565b909150905080915050809050919050565b60006200019c8787878787876200028360201b60201c565b90509695505050505050565b600080600080849050600062253d8c62010bd98301019050600062023ab18260040281620001d257fe5b059050600460038262023ab1020181620001e857fe5b0582039150600062164b0960018401610fa002816200020357fe5b059050601f6004826105b502816200021757fe5b058403019250600061098f84605002816200022e57fe5b059050600060508261098f02816200024257fe5b0585039050600b82816200025257fe5b05945084600c0260028301039150848360318603606402010192508298508197508096505050505050509193909250565b600081603c8402610e10860262015180620002a68b8b8b620002b660201b60201c565b0201010190509695505050505050565b60006107b2841015620002c857600080fd5b600084905060008490506000849050600062253d8c60046064600c600e870381620002ef57fe5b0561132488010181620002fe57fe5b05600302816200030a57fe5b05600c80600c600e8803816200031c57fe5b0502600287030361016f02816200032f57fe5b056004600c600e8803816200034057fe5b056112c08901016105b502816200035357fe5b05617d4b8603010103039050809450505050509392505050565b611460806200037d6000396000f3fe608060405234801561001057600080fd5b50600436106101005760003560e01c806396b8cebe11610097578063c7562e3211610066578063c7562e3214610561578063e93314ab1461056b578063edf26d9b14610589578063ee8e6026146105f757610100565b806396b8cebe146104e9578063b99464e314610507578063bbe4fd5014610525578063c533a09c1461054357610100565b806330ccebb5116100d357806330ccebb514610350578063841b8d341461040d57806387155dae1461042b5780638da5cb5b1461049f57610100565b806309d495fd1461010557806315b45623146102395780631fa3d4a0146103145780632bf9ee2114610332575b600080fd5b6101476004803603602081101561011b57600080fd5b81019080803573ffffffffffffffffffffffffffffffffffffffff169060200190929190505050610601565b60405180806020018060200184151515158152602001838103835286818151815260200191508051906020019080838360005b8381101561019557808201518184015260208101905061017a565b50505050905090810190601f1680156101c25780820380516001836020036101000a031916815260200191505b50838103825285818151815260200191508051906020019080838360005b838110156101fb5780820151818401526020810190506101e0565b50505050905090810190601f1680156102285780820380516001836020036101000a031916815260200191505b509550505050505060405180910390f35b6103126004803603604081101561024f57600080fd5b81019080803573ffffffffffffffffffffffffffffffffffffffff1690602001909291908035906020019064010000000081111561028c57600080fd5b82018360208201111561029e57600080fd5b803590602001918460018302840111640100000000831117156102c057600080fd5b91908080601f016020809104026020016040519081016040528093929190818152602001838380828437600081840152601f19601f820116905080830192505050505050509192919290505050610768565b005b61031c610983565b6040518082815260200191505060405180910390f35b61033a610993565b6040518082815260200191505060405180910390f35b6103926004803603602081101561036657600080fd5b81019080803573ffffffffffffffffffffffffffffffffffffffff1690602001909291905050506109a3565b6040518080602001828103825283818151815260200191508051906020019080838360005b838110156103d25780820151818401526020810190506103b7565b50505050905090810190601f1680156103ff5780820380516001836020036101000a031916815260200191505b509250505060405180910390f35b610415610a87565b6040518082815260200191505060405180910390f35b610489600480360360c081101561044157600080fd5b81019080803590602001909291908035906020019092919080359060200190929190803590602001909291908035906020019092919080359060200190929190505050610a91565b6040518082815260200191505060405180910390f35b6104a7610aad565b604051808273ffffffffffffffffffffffffffffffffffffffff1673ffffffffffffffffffffffffffffffffffffffff16815260200191505060405180910390f35b6104f1610ad2565b6040518082815260200191505060405180910390f35b61050f610ae2565b6040518082815260200191505060405180910390f35b61052d610af2565b6040518082815260200191505060405180910390f35b61054b610afa565b6040518082815260200191505060405180910390f35b610569610b0a565b005b610573610dc2565b6040518082815260200191505060405180910390f35b6105b56004803603602081101561059f57600080fd5b8101908080359060200190929190505050610dcc565b604051808273ffffffffffffffffffffffffffffffffffffffff1673ffffffffffffffffffffffffffffffffffffffff16815260200191505060405180910390f35b6105ff610e08565b005b6001602052806000526040600020600091509050806000018054600181600116156101000203166002900480601f0160208091040260200160405190810160405280929190818152602001828054600181600116156101000203166002900480156106ad5780601f10610682576101008083540402835291602001916106ad565b820191906000526020600020905b81548152906001019060200180831161069057829003601f168201915b505050505090806001018054600181600116156101000203166002900480601f01602080910402602001604051908101604052809291908181526020018280546001816001161561010002031660029004801561074b5780601f106107205761010080835404028352916020019161074b565b820191906000526020600020905b81548152906001019060200180831161072e57829003601f168201915b5050505050908060020160009054906101000a900460ff16905083565b6000809054906101000a900473ffffffffffffffffffffffffffffffffffffffff1673ffffffffffffffffffffffffffffffffffffffff163373ffffffffffffffffffffffffffffffffffffffff161461082a576040517f08c379a00000000000000000000000000000000000000000000000000000000081526004018080602001828103825260158152602001807f4f6e6c79206f776e657220697320616c6c6f776564000000000000000000000081525060200191505060405180910390fd5b60028290806001815401808255809150509060018203906000526020600020016000909192909190916101000a81548173ffffffffffffffffffffffffffffffffffffffff021916908373ffffffffffffffffffffffffffffffffffffffff1602179055505060405180606001604052808281526020016040518060400160405280600181526020017f5200000000000000000000000000000000000000000000000000000000000000815250815260200160001515815250600160008473ffffffffffffffffffffffffffffffffffffffff1673ffffffffffffffffffffffffffffffffffffffff168152602001908152602001600020600082015181600001908051906020019061093e929190611306565b50602082015181600101908051906020019061095b929190611306565b5060408201518160020160006101000a81548160ff0219169083151502179055509050505050565b600061098e426110ba565b905090565b600061099e426110e2565b905090565b6060600160008373ffffffffffffffffffffffffffffffffffffffff1673ffffffffffffffffffffffffffffffffffffffff1681526020019081526020016000206001018054600181600116156101000203166002900480601f016020809104026020016040519081016040528092919081815260200182805460018160011615610100020316600290048015610a7b5780601f10610a5057610100808354040283529160200191610a7b565b820191906000526020600020905b815481529060010190602001808311610a5e57829003601f168201915b50505050509050919050565b6000600454905090565b6000610aa1878787878787611109565b90509695505050505050565b6000809054906101000a900473ffffffffffffffffffffffffffffffffffffffff1681565b6000610add42611134565b905090565b6000610aed4261115a565b905090565b600042905090565b6000610b05426110ba565b905090565b60008090505b600280549050811015610dbf573373ffffffffffffffffffffffffffffffffffffffff1660028281548110610b4157fe5b9060005260206000200160009054906101000a900473ffffffffffffffffffffffffffffffffffffffff1673ffffffffffffffffffffffffffffffffffffffff161415610db25760011515600160003373ffffffffffffffffffffffffffffffffffffffff1673ffffffffffffffffffffffffffffffffffffffff16815260200190815260200160002060020160009054906101000a900460ff16151514610be857600080fd5b600454421115610c7f576040518060400160405280600881526020017f4c6566744c617465000000000000000000000000000000000000000000000000815250600160003373ffffffffffffffffffffffffffffffffffffffff1673ffffffffffffffffffffffffffffffffffffffff1681526020019081526020016000206001019080519060200190610c7d929190611386565b505b600454421415610d16576040518060400160405280600481526020017f4c65667400000000000000000000000000000000000000000000000000000000815250600160003373ffffffffffffffffffffffffffffffffffffffff1673ffffffffffffffffffffffffffffffffffffffff1681526020019081526020016000206001019080519060200190610d14929190611386565b505b600454421015610dad576040518060400160405280600981526020017f4c6566744561726c790000000000000000000000000000000000000000000000815250600160003373ffffffffffffffffffffffffffffffffffffffff1673ffffffffffffffffffffffffffffffffffffffff1681526020019081526020016000206001019080519060200190610dab929190611386565b505b610dbf565b8080600101915050610b10565b50565b6000600354905090565b60028181548110610dd957fe5b906000526020600020016000915054906101000a900473ffffffffffffffffffffffffffffffffffffffff1681565b60008090505b6002805490508110156110b7573373ffffffffffffffffffffffffffffffffffffffff1660028281548110610e3f57fe5b9060005260206000200160009054906101000a900473ffffffffffffffffffffffffffffffffffffffff1673ffffffffffffffffffffffffffffffffffffffff1614156110aa57600354421115610f1d576040518060400160405280600a81526020017f4172726976654c61746500000000000000000000000000000000000000000000815250600160003373ffffffffffffffffffffffffffffffffffffffff1673ffffffffffffffffffffffffffffffffffffffff1681526020019081526020016000206001019080519060200190610f1b929190611386565b505b600354421415610fb4576040518060400160405280600681526020017f4172726976650000000000000000000000000000000000000000000000000000815250600160003373ffffffffffffffffffffffffffffffffffffffff1673ffffffffffffffffffffffffffffffffffffffff1681526020019081526020016000206001019080519060200190610fb2929190611386565b505b60035442101561104b576040518060400160405280600b81526020017f4172726976654561726c79000000000000000000000000000000000000000000815250600160003373ffffffffffffffffffffffffffffffffffffffff1673ffffffffffffffffffffffffffffffffffffffff1681526020019081526020016000206001019080519060200190611049929190611386565b505b60018060003373ffffffffffffffffffffffffffffffffffffffff1673ffffffffffffffffffffffffffffffffffffffff16815260200190815260200160002060020160006101000a81548160ff0219169083151502179055506110b7565b8080600101915050610e0e565b50565b60006110d16201518083816110cb57fe5b04611183565b909150905080915050809050919050565b60006110f96201518083816110f357fe5b04611183565b9091505080915050809050919050565b600081603c8402610e108602620151806111248b8b8b611257565b0201010190509695505050505050565b600061114b62015180838161114557fe5b04611183565b90505080915050809050919050565b60008062015180838161116957fe5b069050610e10818161117757fe5b04915081915050919050565b600080600080849050600062253d8c62010bd98301019050600062023ab182600402816111ac57fe5b059050600460038262023ab10201816111c157fe5b0582039150600062164b0960018401610fa002816111db57fe5b059050601f6004826105b502816111ee57fe5b058403019250600061098f846050028161120457fe5b059050600060508261098f028161121757fe5b0585039050600b828161122657fe5b05945084600c0260028301039150848360318603606402010192508298508197508096505050505050509193909250565b60006107b284101561126857600080fd5b600084905060008490506000849050600062253d8c60046064600c600e87038161128e57fe5b056113248801018161129c57fe5b05600302816112a757fe5b05600c80600c600e8803816112b857fe5b0502600287030361016f02816112ca57fe5b056004600c600e8803816112da57fe5b056112c08901016105b502816112ec57fe5b05617d4b8603010103039050809450505050509392505050565b828054600181600116156101000203166002900490600052602060002090601f016020900481019282601f1061134757805160ff1916838001178555611375565b82800160010185558215611375579182015b82811115611374578251825591602001919060010190611359565b5b5090506113829190611406565b5090565b828054600181600116156101000203166002900490600052602060002090601f016020900481019282601f106113c757805160ff19168380011785556113f5565b828001600101855582156113f5579182015b828111156113f45782518255916020019190600101906113d9565b5b5090506114029190611406565b5090565b61142891905b8082111561142457600081600090555060010161140c565b5090565b9056fea265627a7a7231582008b26944b00380cf87a910547b762d41a506139613ab722afbe0c4059d1e451464736f6c63430005100032",
  "source": "pragma solidity >=0.4.21 <0.7.0;\r\n\r\n\r\ncontract Attendance {\r\n    struct Employee{\r\n        string name;\r\n        string status;  // this teels ke late ha , on ha ye early ha \r\n        bool arrived; // this checks ke arrive hua ha ke nahi \r\n    }\r\n    \r\n    address payable public owner; // owner address save ho ga is me \r\n    \r\n    \r\n    mapping(address => Employee) public employee; //  this tells that which address is of which employee\r\n    address [] public addresses; // this will contain all addresses\r\n    \r\n    uint startTime; // job start time \r\n    uint endTime;  // job end time \r\n    \r\n    // some calculations \r\n    uint constant SECONDS_PER_DAY = 24 * 60 * 60;\r\n    uint constant SECONDS_PER_HOUR = 60 * 60;\r\n    uint constant SECONDS_PER_MINUTE = 60;\r\n    int constant OFFSET19700101 = 2440588;\r\n   \r\n    \r\n    constructor() public\r\n    {\r\n        owner=msg.sender;\r\n        \r\n        startTime = getTimestampFromDateTime(getYear(now), getMonth(now) ,getDay(now), 9-5, 0, 0);  // convert these to pakistan time and secs\r\n        endTime = getTimestampFromDateTime(getYear(now), getMonth(now), getDay(now), 17-5, 0, 0);\r\n\t\t\r\n    }\r\n    \r\n    function addEmployees(address payable _emp,string memory _name) public onlyOwner // to do employee\r\n    {\r\n        addresses.push(_emp);\r\n        employee[_emp]=Employee(_name,\"R\",false);\r\n    }\r\n    \r\n    function getPresentYear() public view returns (uint)\r\n\t{\r\n\t\treturn getYear(now);\r\n\t}\r\n    \r\n    function getPresentDay() public view returns (uint)\r\n\t{\r\n\t\treturn getDay(now);\r\n\t}\r\n    \r\n    function getPresentMonth() public view returns (uint)\r\n\t{\r\n\t\treturn getMonth(now) ;\r\n\t}\r\n    \r\n    function getS() public view returns (uint)\r\n\t{\r\n\t\treturn startTime;\r\n\t}\r\n\t\r\n\tfunction getL() public view returns (uint)\r\n\t{\r\n\t\treturn endTime;\r\n\t}\r\n\t\r\n\tfunction getNow() public view returns (uint)\r\n\t{\r\n\t\treturn now;\r\n\t}\r\n\t\r\n    function empArrive() public\r\n    {\r\n        for (uint i=0;i<addresses.length;i++)\r\n        {\r\n            if (addresses[i]==msg.sender)\r\n            {\r\n                if (now>startTime)\r\n                {\r\n                employee[msg.sender].status=\"ArriveLate\";\r\n                }\r\n                if (now==startTime)\r\n                {\r\n                     employee[msg.sender].status=\"Arrive\";\r\n                }\r\n                if (now<startTime)\r\n                {\r\n                     employee[msg.sender].status=\"ArriveEarly\";\r\n                }\r\n                employee[msg.sender].arrived=true;\r\n                break;\r\n            }\r\n        }\r\n    }\r\n    \r\n    function empLeave() public\r\n    {\r\n        for (uint i=0;i<addresses.length;i++)\r\n        {\r\n            if (addresses[i]==msg.sender)\r\n            {\r\n               require(employee[msg.sender].arrived==true);\r\n               if (now>endTime)\r\n                {\r\n                employee[msg.sender].status=\"LeftLate\";\r\n                }\r\n                if (now==endTime)\r\n                {\r\n                     employee[msg.sender].status=\"Left\";\r\n                }\r\n                if (now<endTime)\r\n                {\r\n                     employee[msg.sender].status=\"LeftEarly\";\r\n                }\r\n                break;\r\n            }\r\n        }\r\n    }\r\n    \r\n    function getStatus(address payable _emp) public view returns (string memory)\r\n    {\r\n        return employee[_emp].status;\r\n    }\r\n\t\r\n\tmodifier onlyOwner {\r\n\t\trequire(msg.sender == owner, \"Only owner is allowed\");\r\n\t\t_;\r\n\t}\r\n\r\n\r\n//////////////////////////////   Time Stamp Function            ///////////////////////////////////////////////////////////////////////////////////\r\n\tfunction _daysFromDate(uint year, uint month, uint day) internal pure returns (uint _days) {\r\n        require(year >= 1970);\r\n        int _year = int(year);\r\n        int _month = int(month);\r\n        int _day = int(day);\r\n\r\n        int __days = _day\r\n          - 32075\r\n          + 1461 * (_year + 4800 + (_month - 14) / 12) / 4\r\n          + 367 * (_month - 2 - (_month - 14) / 12 * 12) / 12\r\n          - 3 * ((_year + 4900 + (_month - 14) / 12) / 100) / 4\r\n          - OFFSET19700101;\r\n\r\n        _days = uint(__days);\r\n    }\r\n\t\r\n\tfunction timestampFromDateTime(uint year, uint month, uint day, uint hour, uint minute, uint second) internal pure returns (uint timestamp) {\r\n        timestamp = _daysFromDate(year, month, day) * SECONDS_PER_DAY + hour * SECONDS_PER_HOUR + minute * SECONDS_PER_MINUTE + second;\r\n    }\r\n\t\r\n\tfunction getTimestampFromDateTime(uint year, uint month, uint day, uint hour, uint minute, uint second) public pure returns (uint timestamp) {\r\n        return timestampFromDateTime(year, month, day, hour, minute, second);\r\n    }\r\n    \r\n    function _daysToDate(uint _days) internal pure returns (uint year, uint month, uint day) {\r\n        int __days = int(_days);\r\n\r\n        int L = __days + 68569 + OFFSET19700101;\r\n        int N = 4 * L / 146097;\r\n        L = L - (146097 * N + 3) / 4;\r\n        int _year = 4000 * (L + 1) / 1461001;\r\n        L = L - 1461 * _year / 4 + 31;\r\n        int _month = 80 * L / 2447;\r\n        int _day = L - 2447 * _month / 80;\r\n        L = _month / 11;\r\n        _month = _month + 2 - 12 * L;\r\n        _year = 100 * (N - 49) + _year + L;\r\n\r\n        year = uint(_year);\r\n        month = uint(_month);\r\n        day = uint(_day);\r\n    }\r\n    \r\n\tfunction Day() public view returns (uint)\r\n\t{\r\n\t\treturn getDay(now);\r\n\t}\r\n\t\r\n    function Hour() public view returns (uint)\r\n    {\r\n        return getHour(now);\r\n    }\r\n    \r\n    function timestampToDateTime(uint timestamp) internal pure returns (uint year, uint month, uint day, uint hour, uint minute, uint second) {\r\n        (year, month, day) = _daysToDate(timestamp / SECONDS_PER_DAY);\r\n        uint secs = timestamp % SECONDS_PER_DAY;\r\n        hour = secs / SECONDS_PER_HOUR;\r\n        secs = secs % SECONDS_PER_HOUR;\r\n        minute = secs / SECONDS_PER_MINUTE;\r\n        second = secs % SECONDS_PER_MINUTE;\r\n    }\r\n    \r\n    function getYear(uint timestamp) internal pure returns (uint year) {\r\n        (year,,) = _daysToDate(timestamp / SECONDS_PER_DAY);\r\n        return year;\r\n    }\r\n    \r\n    function getMonth(uint timestamp) internal pure returns (uint month) {\r\n        (,month,) = _daysToDate(timestamp / SECONDS_PER_DAY);\r\n        return month;\r\n    }\r\n    \r\n    function getDay(uint timestamp) internal pure returns (uint day) {\r\n        (,,day) = _daysToDate(timestamp / SECONDS_PER_DAY);\r\n        return day;\r\n    }\r\n    \r\n    function getHour(uint timestamp) internal pure returns (uint hour) {\r\n        uint secs = timestamp % SECONDS_PER_DAY;\r\n        hour = secs / SECONDS_PER_HOUR;\r\n        return hour;\r\n    }\r\n    \r\n    function getMinute(uint timestamp) internal pure returns (uint minute) {\r\n        uint secs = timestamp % SECONDS_PER_HOUR;\r\n        minute = secs / SECONDS_PER_MINUTE;\r\n        return minute;\r\n    }\r\n    \r\n    function getSecond(uint timestamp) internal pure returns (uint second) {\r\n        second = timestamp % SECONDS_PER_MINUTE;\r\n        return second;\r\n    }\r\n    \r\n     \r\n    function _isLeapYear(uint year) internal pure returns (bool leapYear) {\r\n        leapYear = ((year % 4 == 0) && (year % 100 != 0)) || (year % 400 == 0);\r\n    }\r\n    \r\n    function _getDaysInMonth(uint year, uint month) internal pure returns (uint daysInMonth) {\r\n        if (month == 1 || month == 3 || month == 5 || month == 7 || month == 8 || month == 10 || month == 12) {\r\n            daysInMonth = 31;\r\n        } else if (month != 2) {\r\n            daysInMonth = 30;\r\n        } else {\r\n            daysInMonth = _isLeapYear(year) ? 29 : 28;\r\n        }\r\n    }\r\n    \r\n    function addYears(uint timestamp, uint _years) internal pure returns (uint newTimestamp) {\r\n        (uint year, uint month, uint day) = _daysToDate(timestamp / SECONDS_PER_DAY);\r\n        year += _years;\r\n        uint daysInMonth = _getDaysInMonth(year, month);\r\n        if (day > daysInMonth) {\r\n            day = daysInMonth;\r\n        }\r\n        newTimestamp = _daysFromDate(year, month, day) * SECONDS_PER_DAY + timestamp % SECONDS_PER_DAY;\r\n        require(newTimestamp >= timestamp);\r\n    }\r\n    \r\n    function addMonths(uint timestamp, uint _months) internal pure returns (uint newTimestamp) {\r\n        (uint year, uint month, uint day) = _daysToDate(timestamp / SECONDS_PER_DAY);\r\n        month += _months;\r\n        year += (month - 1) / 12;\r\n        month = (month - 1) % 12 + 1;\r\n        uint daysInMonth = _getDaysInMonth(year, month);\r\n        if (day > daysInMonth) {\r\n            day = daysInMonth;\r\n        }\r\n        newTimestamp = _daysFromDate(year, month, day) * SECONDS_PER_DAY + timestamp % SECONDS_PER_DAY;\r\n        require(newTimestamp >= timestamp);\r\n    }\r\n    \r\n    function addDays(uint timestamp, uint _days) internal pure returns (uint newTimestamp) {\r\n        newTimestamp = timestamp + _days * SECONDS_PER_DAY;\r\n        require(newTimestamp >= timestamp);\r\n    }\r\n    \r\n    /////////////////////////////////////////////////////////////////////////////////////////////////////////\r\n    \r\n    \r\n}",
  "sourcePath": "C:\\Users\\tahaa\\OneDrive\\Desktop\\JobAttendence\\backend\\truffle\\contracts\\AttendanceV2.sol",
  "compiler": {
    "name": "solc",
    "version": "0.5.16+commit.9c3226ce.Emscripten.clang"
  },
  "schemaVersion": "3.1.0",
  "updatedAt": "2020-06-07T07:05:57.557Z",
  "devdoc": {
    "methods": {}
  },
  "userdoc": {
    "methods": {}
  }
}