{
  "contractName": "AttendanceV1",
  "abi": [
    {
      "inputs": [],
      "payable": false,
      "stateMutability": "nonpayable",
      "type": "constructor"
    },
    {
      "constant": true,
      "inputs": [
        {
          "internalType": "uint256",
          "name": "",
          "type": "uint256"
        }
      ],
      "name": "addresses",
      "outputs": [
        {
          "internalType": "address",
          "name": "",
          "type": "address"
        }
      ],
      "payable": false,
      "stateMutability": "view",
      "type": "function"
    },
    {
      "constant": true,
      "inputs": [
        {
          "internalType": "address",
          "name": "",
          "type": "address"
        }
      ],
      "name": "employee",
      "outputs": [
        {
          "internalType": "string",
          "name": "name",
          "type": "string"
        },
        {
          "internalType": "string",
          "name": "status",
          "type": "string"
        },
        {
          "internalType": "bool",
          "name": "arrived",
          "type": "bool"
        }
      ],
      "payable": false,
      "stateMutability": "view",
      "type": "function"
    },
    {
      "constant": true,
      "inputs": [],
      "name": "owner",
      "outputs": [
        {
          "internalType": "address payable",
          "name": "",
          "type": "address"
        }
      ],
      "payable": false,
      "stateMutability": "view",
      "type": "function"
    },
    {
      "constant": false,
      "inputs": [
        {
          "internalType": "address payable",
          "name": "_emp",
          "type": "address"
        },
        {
          "internalType": "string",
          "name": "_name",
          "type": "string"
        }
      ],
      "name": "addEmployees",
      "outputs": [],
      "payable": false,
      "stateMutability": "nonpayable",
      "type": "function"
    },
    {
      "constant": true,
      "inputs": [],
      "name": "getS",
      "outputs": [
        {
          "internalType": "uint256",
          "name": "",
          "type": "uint256"
        }
      ],
      "payable": false,
      "stateMutability": "view",
      "type": "function"
    },
    {
      "constant": true,
      "inputs": [],
      "name": "getL",
      "outputs": [
        {
          "internalType": "uint256",
          "name": "",
          "type": "uint256"
        }
      ],
      "payable": false,
      "stateMutability": "view",
      "type": "function"
    },
    {
      "constant": true,
      "inputs": [],
      "name": "getNow",
      "outputs": [
        {
          "internalType": "uint256",
          "name": "",
          "type": "uint256"
        }
      ],
      "payable": false,
      "stateMutability": "view",
      "type": "function"
    },
    {
      "constant": false,
      "inputs": [],
      "name": "empArrive",
      "outputs": [],
      "payable": false,
      "stateMutability": "nonpayable",
      "type": "function"
    },
    {
      "constant": false,
      "inputs": [],
      "name": "empLeave",
      "outputs": [],
      "payable": false,
      "stateMutability": "nonpayable",
      "type": "function"
    },
    {
      "constant": true,
      "inputs": [
        {
          "internalType": "address payable",
          "name": "_emp",
          "type": "address"
        }
      ],
      "name": "getStatus",
      "outputs": [
        {
          "internalType": "string",
          "name": "",
          "type": "string"
        }
      ],
      "payable": false,
      "stateMutability": "view",
      "type": "function"
    },
    {
      "constant": true,
      "inputs": [
        {
          "internalType": "uint256",
          "name": "year",
          "type": "uint256"
        },
        {
          "internalType": "uint256",
          "name": "month",
          "type": "uint256"
        },
        {
          "internalType": "uint256",
          "name": "day",
          "type": "uint256"
        },
        {
          "internalType": "uint256",
          "name": "hour",
          "type": "uint256"
        },
        {
          "internalType": "uint256",
          "name": "minute",
          "type": "uint256"
        },
        {
          "internalType": "uint256",
          "name": "second",
          "type": "uint256"
        }
      ],
      "name": "getTimestampFromDateTime",
      "outputs": [
        {
          "internalType": "uint256",
          "name": "timestamp",
          "type": "uint256"
        }
      ],
      "payable": false,
      "stateMutability": "pure",
      "type": "function"
    },
    {
      "constant": true,
      "inputs": [],
      "name": "Day",
      "outputs": [
        {
          "internalType": "uint256",
          "name": "",
          "type": "uint256"
        }
      ],
      "payable": false,
      "stateMutability": "view",
      "type": "function"
    },
    {
      "constant": true,
      "inputs": [],
      "name": "Hour",
      "outputs": [
        {
          "internalType": "uint256",
          "name": "",
          "type": "uint256"
        }
      ],
      "payable": false,
      "stateMutability": "view",
      "type": "function"
    }
  ],
  "bytecode": "0x60806040523480156200001157600080fd5b50336000806101000a81548173ffffffffffffffffffffffffffffffffffffffff021916908373ffffffffffffffffffffffffffffffffffffffff1602179055506200009a6200006742620000f460201b60201c565b62000078426200012360201b60201c565b62000089426200015360201b60201c565b60046000806200018460201b60201c565b600381905550620000e8620000b542620000f460201b60201c565b620000c6426200012360201b60201c565b620000d7426200015360201b60201c565b600c6000806200018460201b60201c565b6004819055506200036d565b6000620001146201518083816200010757fe5b04620001a860201b60201c565b90505080915050809050919050565b6000620001436201518083816200013657fe5b04620001a860201b60201c565b9091505080915050809050919050565b6000620001736201518083816200016657fe5b04620001a860201b60201c565b909150905080915050809050919050565b60006200019c8787878787876200028360201b60201c565b90509695505050505050565b600080600080849050600062253d8c62010bd98301019050600062023ab18260040281620001d257fe5b059050600460038262023ab1020181620001e857fe5b0582039150600062164b0960018401610fa002816200020357fe5b059050601f6004826105b502816200021757fe5b058403019250600061098f84605002816200022e57fe5b059050600060508261098f02816200024257fe5b0585039050600b82816200025257fe5b05945084600c0260028301039150848360318603606402010192508298508197508096505050505050509193909250565b600081603c8402610e10860262015180620002a68b8b8b620002b660201b60201c565b0201010190509695505050505050565b60006107b2841015620002c857600080fd5b600084905060008490506000849050600062253d8c60046064600c600e870381620002ef57fe5b0561132488010181620002fe57fe5b05600302816200030a57fe5b05600c80600c600e8803816200031c57fe5b0502600287030361016f02816200032f57fe5b056004600c600e8803816200034057fe5b056112c08901016105b502816200035357fe5b05617d4b8603010103039050809450505050509392505050565b611358806200037d6000396000f3fe608060405234801561001057600080fd5b50600436106100cf5760003560e01c8063b99464e31161008c578063c7562e3211610066578063c7562e32146104d6578063e93314ab146104e0578063edf26d9b146104fe578063ee8e60261461056c576100cf565b8063b99464e31461047c578063bbe4fd501461049a578063c533a09c146104b8576100cf565b806309d495fd146100d457806315b456231461020857806330ccebb5146102e3578063841b8d34146103a057806387155dae146103be5780638da5cb5b14610432575b600080fd5b610116600480360360208110156100ea57600080fd5b81019080803573ffffffffffffffffffffffffffffffffffffffff169060200190929190505050610576565b60405180806020018060200184151515158152602001838103835286818151815260200191508051906020019080838360005b83811015610164578082015181840152602081019050610149565b50505050905090810190601f1680156101915780820380516001836020036101000a031916815260200191505b50838103825285818151815260200191508051906020019080838360005b838110156101ca5780820151818401526020810190506101af565b50505050905090810190601f1680156101f75780820380516001836020036101000a031916815260200191505b509550505050505060405180910390f35b6102e16004803603604081101561021e57600080fd5b81019080803573ffffffffffffffffffffffffffffffffffffffff1690602001909291908035906020019064010000000081111561025b57600080fd5b82018360208201111561026d57600080fd5b8035906020019184600183028401116401000000008311171561028f57600080fd5b91908080601f016020809104026020016040519081016040528093929190818152602001838380828437600081840152601f19601f8201169050808301925050505050505091929192905050506106dd565b005b610325600480360360208110156102f957600080fd5b81019080803573ffffffffffffffffffffffffffffffffffffffff1690602001909291905050506108f8565b6040518080602001828103825283818151815260200191508051906020019080838360005b8381101561036557808201518184015260208101905061034a565b50505050905090810190601f1680156103925780820380516001836020036101000a031916815260200191505b509250505060405180910390f35b6103a86109dc565b6040518082815260200191505060405180910390f35b61041c600480360360c08110156103d457600080fd5b810190808035906020019092919080359060200190929190803590602001909291908035906020019092919080359060200190929190803590602001909291905050506109e6565b6040518082815260200191505060405180910390f35b61043a610a02565b604051808273ffffffffffffffffffffffffffffffffffffffff1673ffffffffffffffffffffffffffffffffffffffff16815260200191505060405180910390f35b610484610a27565b6040518082815260200191505060405180910390f35b6104a2610a37565b6040518082815260200191505060405180910390f35b6104c0610a3f565b6040518082815260200191505060405180910390f35b6104de610a4f565b005b6104e8610d07565b6040518082815260200191505060405180910390f35b61052a6004803603602081101561051457600080fd5b8101908080359060200190929190505050610d11565b604051808273ffffffffffffffffffffffffffffffffffffffff1673ffffffffffffffffffffffffffffffffffffffff16815260200191505060405180910390f35b610574610d4d565b005b6001602052806000526040600020600091509050806000018054600181600116156101000203166002900480601f0160208091040260200160405190810160405280929190818152602001828054600181600116156101000203166002900480156106225780601f106105f757610100808354040283529160200191610622565b820191906000526020600020905b81548152906001019060200180831161060557829003601f168201915b505050505090806001018054600181600116156101000203166002900480601f0160208091040260200160405190810160405280929190818152602001828054600181600116156101000203166002900480156106c05780601f10610695576101008083540402835291602001916106c0565b820191906000526020600020905b8154815290600101906020018083116106a357829003601f168201915b5050505050908060020160009054906101000a900460ff16905083565b6000809054906101000a900473ffffffffffffffffffffffffffffffffffffffff1673ffffffffffffffffffffffffffffffffffffffff163373ffffffffffffffffffffffffffffffffffffffff161461079f576040517f08c379a00000000000000000000000000000000000000000000000000000000081526004018080602001828103825260158152602001807f4f6e6c79206f776e657220697320616c6c6f776564000000000000000000000081525060200191505060405180910390fd5b60028290806001815401808255809150509060018203906000526020600020016000909192909190916101000a81548173ffffffffffffffffffffffffffffffffffffffff021916908373ffffffffffffffffffffffffffffffffffffffff1602179055505060405180606001604052808281526020016040518060400160405280600181526020017f5200000000000000000000000000000000000000000000000000000000000000815250815260200160001515815250600160008473ffffffffffffffffffffffffffffffffffffffff1673ffffffffffffffffffffffffffffffffffffffff16815260200190815260200160002060008201518160000190805190602001906108b39291906111fe565b5060208201518160010190805190602001906108d09291906111fe565b5060408201518160020160006101000a81548160ff0219169083151502179055509050505050565b6060600160008373ffffffffffffffffffffffffffffffffffffffff1673ffffffffffffffffffffffffffffffffffffffff1681526020019081526020016000206001018054600181600116156101000203166002900480601f0160208091040260200160405190810160405280929190818152602001828054600181600116156101000203166002900480156109d05780601f106109a5576101008083540402835291602001916109d0565b820191906000526020600020905b8154815290600101906020018083116109b357829003601f168201915b50505050509050919050565b6000600454905090565b60006109f6878787878787610fff565b90509695505050505050565b6000809054906101000a900473ffffffffffffffffffffffffffffffffffffffff1681565b6000610a324261102a565b905090565b600042905090565b6000610a4a42611053565b905090565b60008090505b600280549050811015610d04573373ffffffffffffffffffffffffffffffffffffffff1660028281548110610a8657fe5b9060005260206000200160009054906101000a900473ffffffffffffffffffffffffffffffffffffffff1673ffffffffffffffffffffffffffffffffffffffff161415610cf75760011515600160003373ffffffffffffffffffffffffffffffffffffffff1673ffffffffffffffffffffffffffffffffffffffff16815260200190815260200160002060020160009054906101000a900460ff16151514610b2d57600080fd5b600454421115610bc4576040518060400160405280600881526020017f4c6566744c617465000000000000000000000000000000000000000000000000815250600160003373ffffffffffffffffffffffffffffffffffffffff1673ffffffffffffffffffffffffffffffffffffffff1681526020019081526020016000206001019080519060200190610bc292919061127e565b505b600454421415610c5b576040518060400160405280600481526020017f4c65667400000000000000000000000000000000000000000000000000000000815250600160003373ffffffffffffffffffffffffffffffffffffffff1673ffffffffffffffffffffffffffffffffffffffff1681526020019081526020016000206001019080519060200190610c5992919061127e565b505b600454421015610cf2576040518060400160405280600981526020017f4c6566744561726c790000000000000000000000000000000000000000000000815250600160003373ffffffffffffffffffffffffffffffffffffffff1673ffffffffffffffffffffffffffffffffffffffff1681526020019081526020016000206001019080519060200190610cf092919061127e565b505b610d04565b8080600101915050610a55565b50565b6000600354905090565b60028181548110610d1e57fe5b906000526020600020016000915054906101000a900473ffffffffffffffffffffffffffffffffffffffff1681565b60008090505b600280549050811015610ffc573373ffffffffffffffffffffffffffffffffffffffff1660028281548110610d8457fe5b9060005260206000200160009054906101000a900473ffffffffffffffffffffffffffffffffffffffff1673ffffffffffffffffffffffffffffffffffffffff161415610fef57600354421115610e62576040518060400160405280600a81526020017f4172726976654c61746500000000000000000000000000000000000000000000815250600160003373ffffffffffffffffffffffffffffffffffffffff1673ffffffffffffffffffffffffffffffffffffffff1681526020019081526020016000206001019080519060200190610e6092919061127e565b505b600354421415610ef9576040518060400160405280600681526020017f4172726976650000000000000000000000000000000000000000000000000000815250600160003373ffffffffffffffffffffffffffffffffffffffff1673ffffffffffffffffffffffffffffffffffffffff1681526020019081526020016000206001019080519060200190610ef792919061127e565b505b600354421015610f90576040518060400160405280600b81526020017f4172726976654561726c79000000000000000000000000000000000000000000815250600160003373ffffffffffffffffffffffffffffffffffffffff1673ffffffffffffffffffffffffffffffffffffffff1681526020019081526020016000206001019080519060200190610f8e92919061127e565b505b60018060003373ffffffffffffffffffffffffffffffffffffffff1673ffffffffffffffffffffffffffffffffffffffff16815260200190815260200160002060020160006101000a81548160ff021916908315150217905550610ffc565b8080600101915050610d53565b50565b600081603c8402610e1086026201518061101a8b8b8b61107b565b0201010190509695505050505050565b60008062015180838161103957fe5b069050610e10818161104757fe5b04915081915050919050565b600061106a62015180838161106457fe5b0461112a565b909150905080915050809050919050565b60006107b284101561108c57600080fd5b600084905060008490506000849050600062253d8c60046064600c600e8703816110b257fe5b05611324880101816110c057fe5b05600302816110cb57fe5b05600c80600c600e8803816110dc57fe5b0502600287030361016f02816110ee57fe5b056004600c600e8803816110fe57fe5b056112c08901016105b5028161111057fe5b05617d4b8603010103039050809450505050509392505050565b600080600080849050600062253d8c62010bd98301019050600062023ab1826004028161115357fe5b059050600460038262023ab102018161116857fe5b0582039150600062164b0960018401610fa0028161118257fe5b059050601f6004826105b5028161119557fe5b058403019250600061098f84605002816111ab57fe5b059050600060508261098f02816111be57fe5b0585039050600b82816111cd57fe5b05945084600c0260028301039150848360318603606402010192508298508197508096505050505050509193909250565b828054600181600116156101000203166002900490600052602060002090601f016020900481019282601f1061123f57805160ff191683800117855561126d565b8280016001018555821561126d579182015b8281111561126c578251825591602001919060010190611251565b5b50905061127a91906112fe565b5090565b828054600181600116156101000203166002900490600052602060002090601f016020900481019282601f106112bf57805160ff19168380011785556112ed565b828001600101855582156112ed579182015b828111156112ec5782518255916020019190600101906112d1565b5b5090506112fa91906112fe565b5090565b61132091905b8082111561131c576000816000905550600101611304565b5090565b9056fea265627a7a7231582038bcb9191603a6cca3216ea9a3d784b11b55ad2a6c3c4246c3da970d48901bae64736f6c63430005100032",
  "source": "pragma solidity >=0.4.21 <0.7.0;\r\n\r\ncontract AttendanceV1 {\r\n    struct Employee{\r\n        string name;\r\n        string status;  // this teels ke late ha , on ha ye early ha \r\n        bool arrived; // this checks ke arrive hua ha ke nahi \r\n    }\r\n    \r\n    address payable public owner; // owner address save ho ga is me \r\n    \r\n    \r\n    mapping(address => Employee) public employee; //  this tells that which address is of which employee\r\n    address [] public addresses; // this will contain all addresses\r\n    \r\n    uint startTime; // job start time \r\n    uint endTime;  // job end time \r\n    \r\n    // some calculations \r\n    uint constant SECONDS_PER_DAY = 24 * 60 * 60;\r\n    uint constant SECONDS_PER_HOUR = 60 * 60;\r\n    uint constant SECONDS_PER_MINUTE = 60;\r\n    int constant OFFSET19700101 = 2440588;\r\n   \r\n    \r\n    constructor() public\r\n    {\r\n        owner=msg.sender;\r\n        \r\n        startTime = getTimestampFromDateTime(getYear(now), getMonth(now) ,getDay(now), 9-5, 0, 0);  // convert these to pakistan time and secs\r\n        endTime = getTimestampFromDateTime(getYear(now), getMonth(now), getDay(now), 17-5, 0, 0);\r\n\t\t\r\n    }\r\n    \r\n    function addEmployees(address payable _emp,string memory _name) public onlyOwner // to do employee\r\n    {\r\n        addresses.push(_emp);\r\n        employee[_emp]=Employee(_name,\"R\",false);\r\n    }\r\n    \r\n    function getS() public view returns (uint)\r\n\t{\r\n\t\treturn startTime;\r\n\t}\r\n\t\r\n\tfunction getL() public view returns (uint)\r\n\t{\r\n\t\treturn endTime;\r\n\t}\r\n\t\r\n\tfunction getNow() public view returns (uint)\r\n\t{\r\n\t\treturn now;\r\n\t}\r\n\t\r\n    function empArrive() public\r\n    {\r\n        for (uint i=0;i<addresses.length;i++)\r\n        {\r\n            if (addresses[i]==msg.sender)\r\n            {\r\n                if (now>startTime)\r\n                {\r\n                employee[msg.sender].status=\"ArriveLate\";\r\n                }\r\n                if (now==startTime)\r\n                {\r\n                     employee[msg.sender].status=\"Arrive\";\r\n                }\r\n                if (now<startTime)\r\n                {\r\n                     employee[msg.sender].status=\"ArriveEarly\";\r\n                }\r\n                employee[msg.sender].arrived=true;\r\n                break;\r\n            }\r\n        }\r\n    }\r\n    \r\n    function empLeave() public\r\n    {\r\n        for (uint i=0;i<addresses.length;i++)\r\n        {\r\n            if (addresses[i]==msg.sender)\r\n            {\r\n               require(employee[msg.sender].arrived==true);\r\n               if (now>endTime)\r\n                {\r\n                employee[msg.sender].status=\"LeftLate\";\r\n                }\r\n                if (now==endTime)\r\n                {\r\n                     employee[msg.sender].status=\"Left\";\r\n                }\r\n                if (now<endTime)\r\n                {\r\n                     employee[msg.sender].status=\"LeftEarly\";\r\n                }\r\n                break;\r\n            }\r\n        }\r\n    }\r\n    \r\n    function getStatus(address payable _emp) public view returns (string memory)\r\n    {\r\n        return employee[_emp].status;\r\n    }\r\n\t\r\n\tmodifier onlyOwner {\r\n\t\trequire(msg.sender == owner, \"Only owner is allowed\");\r\n\t\t_;\r\n\t}\r\n\r\n\r\n//////////////////////////////   Time Stamp Function            ///////////////////////////////////////////////////////////////////////////////////\r\n\tfunction _daysFromDate(uint year, uint month, uint day) internal pure returns (uint _days) {\r\n        require(year >= 1970);\r\n        int _year = int(year);\r\n        int _month = int(month);\r\n        int _day = int(day);\r\n\r\n        int __days = _day\r\n          - 32075\r\n          + 1461 * (_year + 4800 + (_month - 14) / 12) / 4\r\n          + 367 * (_month - 2 - (_month - 14) / 12 * 12) / 12\r\n          - 3 * ((_year + 4900 + (_month - 14) / 12) / 100) / 4\r\n          - OFFSET19700101;\r\n\r\n        _days = uint(__days);\r\n    }\r\n\t\r\n\tfunction timestampFromDateTime(uint year, uint month, uint day, uint hour, uint minute, uint second) internal pure returns (uint timestamp) {\r\n        timestamp = _daysFromDate(year, month, day) * SECONDS_PER_DAY + hour * SECONDS_PER_HOUR + minute * SECONDS_PER_MINUTE + second;\r\n    }\r\n\t\r\n\tfunction getTimestampFromDateTime(uint year, uint month, uint day, uint hour, uint minute, uint second) public pure returns (uint timestamp) {\r\n        return timestampFromDateTime(year, month, day, hour, minute, second);\r\n    }\r\n    \r\n    function _daysToDate(uint _days) internal pure returns (uint year, uint month, uint day) {\r\n        int __days = int(_days);\r\n\r\n        int L = __days + 68569 + OFFSET19700101;\r\n        int N = 4 * L / 146097;\r\n        L = L - (146097 * N + 3) / 4;\r\n        int _year = 4000 * (L + 1) / 1461001;\r\n        L = L - 1461 * _year / 4 + 31;\r\n        int _month = 80 * L / 2447;\r\n        int _day = L - 2447 * _month / 80;\r\n        L = _month / 11;\r\n        _month = _month + 2 - 12 * L;\r\n        _year = 100 * (N - 49) + _year + L;\r\n\r\n        year = uint(_year);\r\n        month = uint(_month);\r\n        day = uint(_day);\r\n    }\r\n    \r\n\tfunction Day() public view returns (uint)\r\n\t{\r\n\t\treturn getDay(now);\r\n\t}\r\n\t\r\n    function Hour() public view returns (uint)\r\n    {\r\n        return getHour(now);\r\n    }\r\n    \r\n    function timestampToDateTime(uint timestamp) internal pure returns (uint year, uint month, uint day, uint hour, uint minute, uint second) {\r\n        (year, month, day) = _daysToDate(timestamp / SECONDS_PER_DAY);\r\n        uint secs = timestamp % SECONDS_PER_DAY;\r\n        hour = secs / SECONDS_PER_HOUR;\r\n        secs = secs % SECONDS_PER_HOUR;\r\n        minute = secs / SECONDS_PER_MINUTE;\r\n        second = secs % SECONDS_PER_MINUTE;\r\n    }\r\n    \r\n    function getYear(uint timestamp) internal pure returns (uint year) {\r\n        (year,,) = _daysToDate(timestamp / SECONDS_PER_DAY);\r\n        return year;\r\n    }\r\n    \r\n    function getMonth(uint timestamp) internal pure returns (uint month) {\r\n        (,month,) = _daysToDate(timestamp / SECONDS_PER_DAY);\r\n        return month;\r\n    }\r\n    \r\n    function getDay(uint timestamp) internal pure returns (uint day) {\r\n        (,,day) = _daysToDate(timestamp / SECONDS_PER_DAY);\r\n        return day;\r\n    }\r\n    \r\n    function getHour(uint timestamp) internal pure returns (uint hour) {\r\n        uint secs = timestamp % SECONDS_PER_DAY;\r\n        hour = secs / SECONDS_PER_HOUR;\r\n        return hour;\r\n    }\r\n    \r\n    function getMinute(uint timestamp) internal pure returns (uint minute) {\r\n        uint secs = timestamp % SECONDS_PER_HOUR;\r\n        minute = secs / SECONDS_PER_MINUTE;\r\n        return minute;\r\n    }\r\n    \r\n    function getSecond(uint timestamp) internal pure returns (uint second) {\r\n        second = timestamp % SECONDS_PER_MINUTE;\r\n        return second;\r\n    }\r\n    \r\n     \r\n    function _isLeapYear(uint year) internal pure returns (bool leapYear) {\r\n        leapYear = ((year % 4 == 0) && (year % 100 != 0)) || (year % 400 == 0);\r\n    }\r\n    \r\n    function _getDaysInMonth(uint year, uint month) internal pure returns (uint daysInMonth) {\r\n        if (month == 1 || month == 3 || month == 5 || month == 7 || month == 8 || month == 10 || month == 12) {\r\n            daysInMonth = 31;\r\n        } else if (month != 2) {\r\n            daysInMonth = 30;\r\n        } else {\r\n            daysInMonth = _isLeapYear(year) ? 29 : 28;\r\n        }\r\n    }\r\n    \r\n    function addYears(uint timestamp, uint _years) internal pure returns (uint newTimestamp) {\r\n        (uint year, uint month, uint day) = _daysToDate(timestamp / SECONDS_PER_DAY);\r\n        year += _years;\r\n        uint daysInMonth = _getDaysInMonth(year, month);\r\n        if (day > daysInMonth) {\r\n            day = daysInMonth;\r\n        }\r\n        newTimestamp = _daysFromDate(year, month, day) * SECONDS_PER_DAY + timestamp % SECONDS_PER_DAY;\r\n        require(newTimestamp >= timestamp);\r\n    }\r\n    \r\n    function addMonths(uint timestamp, uint _months) internal pure returns (uint newTimestamp) {\r\n        (uint year, uint month, uint day) = _daysToDate(timestamp / SECONDS_PER_DAY);\r\n        month += _months;\r\n        year += (month - 1) / 12;\r\n        month = (month - 1) % 12 + 1;\r\n        uint daysInMonth = _getDaysInMonth(year, month);\r\n        if (day > daysInMonth) {\r\n            day = daysInMonth;\r\n        }\r\n        newTimestamp = _daysFromDate(year, month, day) * SECONDS_PER_DAY + timestamp % SECONDS_PER_DAY;\r\n        require(newTimestamp >= timestamp);\r\n    }\r\n    \r\n    function addDays(uint timestamp, uint _days) internal pure returns (uint newTimestamp) {\r\n        newTimestamp = timestamp + _days * SECONDS_PER_DAY;\r\n        require(newTimestamp >= timestamp);\r\n    }\r\n    \r\n    /////////////////////////////////////////////////////////////////////////////////////////////////////////\r\n    \r\n    \r\n}",
  "sourcePath": "C:\\Users\\tahaa\\OneDrive\\Desktop\\JobAttendence\\backend\\truffle\\contracts\\AttendanceV1.sol",
  "compiler": {
    "name": "solc",
    "version": "0.5.16+commit.9c3226ce.Emscripten.clang"
  },
  "schemaVersion": "3.1.0",
  "updatedAt": "2020-06-05T17:19:18.579Z",
  "networkType": "ethereum",
  "devdoc": {
    "methods": {}
  },
  "userdoc": {
    "methods": {}
  }
}